:100000000C942A000C9434000C9434000C943400AA
:100010000C9434000C9434000C9434000C94340090
:100020000C9434000C9434000C9434000C94340080
:100030000C9434000C9434000C9434000C94340070
:100040000C9434000C9434000C9434000C94340060
:100050000C94340011241FBECFE5D8E0DEBFCDBF25
:100060000E945B030C94E5030C940000DF93CF9394
:1000700000D00F92CDB7DEB78A836B838A818695D5
:100080008695869589838981882309F066C08B814E
:100090008823C1F4AAE3B0E0EAE3F0E08081482FCE
:1000A0008A81882F90E09C012770307081E090E079
:1000B000022E02C0880F991F0A94E2F780958423CC
:1000C0008C9387C18B818130B9F4AAE3B0E0EAE375
:1000D000F0E08081482F8A81882F90E09C01277072
:1000E000307081E090E0022E02C0880F991F0A94C0
:1000F000E2F7842B8C936DC18B81823009F069C14A
:10010000AAE3B0E0EAE3F0E08081482F8A81882FFB
:1001100090E09C012770307081E090E002C0880F71
:10012000991F2A95E2F7809584238C93ABE3B0E086
:10013000EBE3F0E08081482F8A81882F90E09C01DA
:100140002770307081E090E0022E02C0880F991F66
:100150000A94E2F7842B8C933CC18981813009F0A9
:1001600066C08B818823C1F4A7E3B0E0E7E3F0E049
:100170008081482F8A81882F90E09C012770307001
:1001800081E090E0022E02C0880F991F0A94E2F7E6
:10019000809584238C931DC18B818130B9F4A7E3B2
:1001A000B0E0E7E3F0E08081482F8A81882F90E07B
:1001B0009C012770307081E090E0022E02C0880F11
:1001C000991F0A94E2F7842B8C9303C18B818230B0
:1001D00009F0FFC0A7E3B0E0E7E3F0E08081482F3B
:1001E0008A81882F90E09C012770307081E090E038
:1001F00002C0880F991F2A95E2F7809584238C937B
:10020000A8E3B0E0E8E3F0E08081482F8A81882FFE
:1002100090E09C012770307081E090E0022E02C0D7
:10022000880F991F0A94E2F7842B8C93D2C089819E
:10023000823009F066C08B818823C1F4A4E3B0E06A
:10024000E4E3F0E08081482F8A81882F90E09C01D0
:100250002770307081E090E0022E02C0880F991F55
:100260000A94E2F7809584238C93B3C08B8181300C
:10027000B9F4A4E3B0E0E4E3F0E08081482F8A81A0
:10028000882F90E09C012770307081E090E0022E72
:1002900002C0880F991F0A94E2F7842B8C9399C0AF
:1002A0008B81823009F095C0A4E3B0E0E4E3F0E094
:1002B0008081482F8A81882F90E09C0127703070C0
:1002C00081E090E002C0880F991F2A95E2F780959F
:1002D00084238C93A5E3B0E0E5E3F0E08081482F30
:1002E0008A81882F90E09C012770307081E090E037
:1002F000022E02C0880F991F0A94E2F7842B8C9378
:1003000068C08981833009F064C08B818823C1F47F
:10031000A1E3B0E0E1E3F0E08081482F8A81882FFB
:1003200090E09C012770307081E090E0022E02C0C6
:10033000880F991F0A94E2F7809584238C9349C013
:100340008B818130B9F4A1E3B0E0E1E3F0E080819A
:10035000482F8A81882F90E09C012770307081E0BF
:1003600090E0022E02C0880F991F0A94E2F7842BB6
:100370008C932FC08B81823061F5A1E3B0E0E1E383
:10038000F0E08081482F8A81882F90E09C012770BF
:10039000307081E090E002C0880F991F2A95E2F743
:1003A000809584238C93A2E3B0E0E2E3F0E08081C7
:1003B000482F8A81882F90E09C012770307081E05F
:1003C00090E0022E02C0880F991F0A94E2F7842B56
:1003D0008C930F900F900F90CF91DF910895DF9342
:1003E000CF9300D00F92CDB7DEB78A836B838A811B
:1003F000869586958695898389818823B1F58B8139
:100400008823C1F4ABE3B0E0EBE3F0E08081482F58
:100410008A81882F90E09C012770307081E090E005
:10042000022E02C0880F991F0A94E2F78095842358
:100430008C93C4C08B81813009F0C0C0ABE3B0E0C5
:10044000EBE3F0E08081482F8A81882F90E09C01C7
:100450002770307081E090E0022E02C0880F991F53
:100460000A94E2F7842B8C93A9C089818130B1F57D
:100470008B818823C1F4A8E3B0E0E8E3F0E0808159
:10048000482F8A81882F90E09C012770307081E08E
:1004900090E0022E02C0880F991F0A94E2F780951F
:1004A00084238C938BC08B81813009F087C0A8E3B3
:1004B000B0E0E8E3F0E08081482F8A81882F90E067
:1004C0009C012770307081E090E0022E02C0880FFE
:1004D000991F0A94E2F7842B8C9370C08981823033
:1004E000B1F58B818823C1F4A5E3B0E0E5E3F0E04A
:1004F0008081482F8A81882F90E09C01277030707E
:1005000081E090E0022E02C0880F991F0A94E2F762
:10051000809584238C9352C08B81813009F04EC02A
:10052000A5E3B0E0E5E3F0E08081482F8A81882FE1
:1005300090E09C012770307081E090E0022E02C0B4
:10054000880F991F0A94E2F7842B8C9337C0898116
:100550008330A1F58B818823C1F4A2E3B0E0E2E30C
:10056000F0E08081482F8A81882F90E09C012770DD
:10057000307081E090E0022E02C0880F991F0A942B
:10058000E2F7809584238C9319C08B818130B1F47C
:10059000A2E3B0E0E2E3F0E08081482F8A81882F77
:1005A00090E09C012770307081E090E0022E02C044
:1005B000880F991F0A94E2F7842B8C930F900F9069
:1005C0000F90CF91DF910895DF93CF9300D000D0AB
:1005D000CDB7DEB78A838A8186958695869589838D
:1005E00089818823A9F4E9E3F0E08081282F30E0B5
:1005F0008A81882F90E087709070A90102C055957C
:1006000047958A95E2F7CA01582F51705B8349C01C
:1006100089818130A9F4E6E3F0E08081282F30E081
:100620008A81882F90E087709070A90102C055954B
:1006300047958A95E2F7CA01582F51705B8331C004
:1006400089818230A9F4E3E3F0E08081282F30E053
:100650008A81882F90E087709070A90102C055951B
:1006600047958A95E2F7CA01582F51705B8319C0EC
:1006700089818330A9F4E0E3F0E08081282F30E025
:100680008A81882F90E087709070A90102C05595EB
:1006900047958A95E2F7CA01582F51705B8301C0D4
:1006A00002C08B818C838C810F900F900F900F90E4
:1006B000CF91DF910895DF93CF930F92CDB7DEB73F
:1006C000E7E3F0E08FEF808380E20E9479030E94ED
:1006D00087030E94B30389838981813429F488E0E8
:1006E00061E00E94EF01F3CF89E061E00E94EF0139
:1006F000EECFDF93CF930F92CDB7DEB78983E2E2DF
:10070000F0E0898180830F90CF91DF910895DF938E
:10071000CF93CDB7DEB71AC0A6E5B0E0E6E5F0E0CE
:10072000808184608C93A6E5B0E0E6E5F0E080810E
:1007300080648C93A6E5B0E0E6E5F0E08081806817
:100740008C93E6E5F0E080818823DCF7E1E2F0E0DD
:100750008081882F90E0887F907080369105E1F647
:10076000CF91DF910895DF93CF930F92CDB7DEB78E
:10077000A6E5B0E0E6E5F0E0808184608C93A6E534
:10078000B0E0E6E5F0E0808180648C93A6E5B0E01F
:10079000E6E5F0E0808180688C93E6E5F0E080811A
:1007A0008823DCF7E1E2F0E08081882F90E0887F09
:1007B000907080389105B1F7E3E2F0E080818983A1
:0E07C00089810F90CF91DF910895F894FFCFBB
:00000001FF
