:100000000C942A000C9434000C9434000C943400AA
:100010000C9434000C9434000C9434000C94340090
:100020000C9434000C9434000C9434000C94340080
:100030000C9434000C9434000C9434000C94340070
:100040000C94010A0C9434000C9434000C94340089
:100050000C94340011241FBECFE5D8E0DEBFCDBF25
:100060000E94D4090C942C0A0C940000DF93CF93C7
:10007000CDB7DEB72C970FB6F894DEBF0FBECDBF5D
:1000800069837A838B839C838981282F30E03C8726
:100090002B878B859C8581309105C1F02B853C8514
:1000A0002230310511F18B859C85009761F5A7E21F
:1000B000B0E0E7E2F0E080818F778C93A7E2B0E0D8
:1000C000E7E2F0E080818F7B8C931DC0A7E2B0E077
:1000D000E7E2F0E080818F778C93A7E2B0E0E7E27F
:1000E000F0E0808180648C930EC0A7E2B0E0E7E28C
:1000F000F0E0808180688C93A7E2B0E0E7E2F0E076
:10010000808180648C938A81282F30E03A87298708
:1001100089859A85009769F029853A8521303105CE
:1001200079F4A7E2B0E0E7E2F0E0808180628C93AE
:1001300007C0A7E2B0E0E7E2F0E080818F7D8C931A
:100140008B81282F30E038872F838F8198858E30E0
:10015000910509F4ADC22F8138852F3031050CF09F
:1001600054C08F8198858630910509F481C12F8113
:1001700038852730310524F58F81988582309105A7
:1001800009F4E6C02F8138852330310564F48F816E
:100190009885009709F494C02F8138852130310566
:1001A00009F4B2C0C4C48F8198858430910509F4E4
:1001B00017C12F813885253031050CF035C1ECC0D1
:1001C0008F8198858A30910509F4E2C12F813885A5
:1001D0002B3031056CF48F8198858830910509F4B6
:1001E0008FC12F813885293031050CF0ADC164C134
:1001F0008F8198858C30910509F412C22F81388542
:100200002D3031050CF030C2E7C18F8198858631E1
:10021000910509F46DC32F813885273131052CF5FF
:100220008F8198858231910509F4D2C22F8138855A
:10023000233131056CF48F8198858031910509F463
:100240007FC22F813885213131050CF09DC254C207
:100250008F8198858431910509F402C32F813885F7
:10026000253131050CF020C3D7C28F8198858A31A2
:10027000910509F4CDC32F8138852B3131056CF4FC
:100280008F8198858831910509F47AC32F8138854B
:10029000293131050CF098C34FC38F8198858C317B
:1002A000910509F4FDC32F8138852C3131050CF4FB
:1002B000D3C38F8198858D31910509F415C437C456
:1002C000A7E2B0E0E7E2F0E080818F7E8C93A7E2C6
:1002D000B0E0E7E2F0E08081877F8C93A7E2B0E0B6
:1002E000E7E2F0E080818B7F8C93A7E2B0E0E7E269
:1002F000F0E080818D7F8C93A7E2B0E0E7E2F0E050
:1003000080818E7F8C9313C4A7E2B0E0E7E2F0E037
:1003100080818F7E8C93A7E2B0E0E7E2F0E08081FD
:10032000877F8C93A7E2B0E0E7E2F0E080818B7FEB
:100330008C93A7E2B0E0E7E2F0E080818D7F8C93C0
:10034000A7E2B0E0E7E2F0E0808181608C93EFC348
:10035000A7E2B0E0E7E2F0E080818F7E8C93A7E235
:10036000B0E0E7E2F0E08081877F8C93A7E2B0E025
:10037000E7E2F0E080818B7F8C93A7E2B0E0E7E2D8
:10038000F0E0808182608C93A7E2B0E0E7E2F0E0E9
:1003900080818E7F8C93CBC3A7E2B0E0E7E2F0E0F0
:1003A00080818F7E8C93A7E2B0E0E7E2F0E080816D
:1003B000877F8C93A7E2B0E0E7E2F0E080818B7F5B
:1003C0008C93A7E2B0E0E7E2F0E0808182608C935A
:1003D000A7E2B0E0E7E2F0E0808181608C93A7C300
:1003E000A7E2B0E0E7E2F0E080818F7E8C93A7E2A5
:1003F000B0E0E7E2F0E08081877F8C93A7E2B0E095
:10040000E7E2F0E0808184608C93A7E2B0E0E7E26D
:10041000F0E080818D7F8C93A7E2B0E0E7E2F0E02E
:1004200080818E7F8C9383C3A7E2B0E0E7E2F0E0A7
:1004300080818F7E8C93A7E2B0E0E7E2F0E08081DC
:10044000877F8C93A7E2B0E0E7E2F0E080818460F0
:100450008C93A7E2B0E0E7E2F0E080818D7F8C939F
:10046000A7E2B0E0E7E2F0E0808181608C935FC3B7
:10047000A7E2B0E0E7E2F0E080818F7E8C93A7E214
:10048000B0E0E7E2F0E08081877F8C93A7E2B0E004
:10049000E7E2F0E0808184608C93A7E2B0E0E7E2DD
:1004A000F0E0808182608C93A7E2B0E0E7E2F0E0C8
:1004B00080818E7F8C933BC3A7E2B0E0E7E2F0E05F
:1004C00080818F7E8C93A7E2B0E0E7E2F0E080814C
:1004D000877F8C93A7E2B0E0E7E2F0E08081846060
:1004E0008C93A7E2B0E0E7E2F0E0808182608C9339
:1004F000A7E2B0E0E7E2F0E0808181608C9317C36F
:10050000A7E2B0E0E7E2F0E080818F7E8C93A7E283
:10051000B0E0E7E2F0E0808188608C93A7E2B0E091
:10052000E7E2F0E080818B7F8C93A7E2B0E0E7E226
:10053000F0E080818D7F8C93A7E2B0E0E7E2F0E00D
:1005400080818E7F8C93F3C2A7E2B0E0E7E2F0E017
:1005500080818F7E8C93A7E2B0E0E7E2F0E08081BB
:1005600088608C93A7E2B0E0E7E2F0E080818B7FC7
:100570008C93A7E2B0E0E7E2F0E080818D7F8C937E
:10058000A7E2B0E0E7E2F0E0808181608C93CFC227
:10059000A7E2B0E0E7E2F0E080818F7E8C93A7E2F3
:1005A000B0E0E7E2F0E0808188608C93A7E2B0E001
:1005B000E7E2F0E080818B7F8C93A7E2B0E0E7E296
:1005C000F0E0808182608C93A7E2B0E0E7E2F0E0A7
:1005D00080818E7F8C93ABC2A7E2B0E0E7E2F0E0CF
:1005E00080818F7E8C93A7E2B0E0E7E2F0E080812B
:1005F00088608C93A7E2B0E0E7E2F0E080818B7F37
:100600008C93A7E2B0E0E7E2F0E0808182608C9317
:10061000A7E2B0E0E7E2F0E0808181608C9387C2DE
:10062000A7E2B0E0E7E2F0E080818F7E8C93A7E262
:10063000B0E0E7E2F0E0808188608C93A7E2B0E070
:10064000E7E2F0E0808184608C93A7E2B0E0E7E22B
:10065000F0E080818D7F8C93A7E2B0E0E7E2F0E0EC
:1006600080818E7F8C9363C2A7E2B0E0E7E2F0E086
:1006700080818F7E8C93A7E2B0E0E7E2F0E080819A
:1006800088608C93A7E2B0E0E7E2F0E080818460CC
:100690008C93A7E2B0E0E7E2F0E080818D7F8C935D
:1006A000A7E2B0E0E7E2F0E0808181608C933FC296
:1006B000A7E2B0E0E7E2F0E080818F7E8C93A7E2D2
:1006C000B0E0E7E2F0E0808188608C93A7E2B0E0E0
:1006D000E7E2F0E0808184608C93A7E2B0E0E7E29B
:1006E000F0E0808182608C93A7E2B0E0E7E2F0E086
:1006F00080818E7F8C931BC2A7E2B0E0E7E2F0E03E
:1007000080818F7E8C93A7E2B0E0E7E2F0E0808109
:1007100088608C93A7E2B0E0E7E2F0E0808184603B
:100720008C93A7E2B0E0E7E2F0E0808182608C93F6
:10073000A7E2B0E0E7E2F0E0808181608C93F7C14E
:10074000A7E2B0E0E7E2F0E0808180618C93A7E26D
:10075000B0E0E7E2F0E08081877F8C93A7E2B0E031
:10076000E7E2F0E080818B7F8C93A7E2B0E0E7E2E4
:10077000F0E080818D7F8C93A7E2B0E0E7E2F0E0CB
:1007800080818E7F8C93D3C1A7E2B0E0E7E2F0E0F6
:10079000808180618C93A7E2B0E0E7E2F0E08081A5
:1007A000877F8C93A7E2B0E0E7E2F0E080818B7F67
:1007B0008C93A7E2B0E0E7E2F0E080818D7F8C933C
:1007C000A7E2B0E0E7E2F0E0808181608C93AFC106
:1007D000A7E2B0E0E7E2F0E0808180618C93A7E2DD
:1007E000B0E0E7E2F0E08081877F8C93A7E2B0E0A1
:1007F000E7E2F0E080818B7F8C93A7E2B0E0E7E254
:10080000F0E0808182608C93A7E2B0E0E7E2F0E064
:1008100080818E7F8C938BC1A7E2B0E0E7E2F0E0AD
:10082000808180618C93A7E2B0E0E7E2F0E0808114
:10083000877F8C93A7E2B0E0E7E2F0E080818B7FD6
:100840008C93A7E2B0E0E7E2F0E0808182608C93D5
:10085000A7E2B0E0E7E2F0E0808181608C9367C1BD
:10086000A7E2B0E0E7E2F0E0808180618C93A7E24C
:10087000B0E0E7E2F0E08081877F8C93A7E2B0E010
:10088000E7E2F0E0808184608C93A7E2B0E0E7E2E9
:10089000F0E080818D7F8C93A7E2B0E0E7E2F0E0AA
:1008A00080818E7F8C9343C1A7E2B0E0E7E2F0E065
:1008B000808180618C93A7E2B0E0E7E2F0E0808184
:1008C000877F8C93A7E2B0E0E7E2F0E0808184606C
:1008D0008C93A7E2B0E0E7E2F0E080818D7F8C931B
:1008E000A7E2B0E0E7E2F0E0808181608C931FC175
:1008F000A7E2B0E0E7E2F0E0808180618C93A7E2BC
:10090000B0E0E7E2F0E08081877F8C93A7E2B0E07F
:10091000E7E2F0E0808184608C93A7E2B0E0E7E258
:10092000F0E0808182608C93A7E2B0E0E7E2F0E043
:1009300080818E7F8C93FBC0A7E2B0E0E7E2F0E01D
:10094000808180618C93A7E2B0E0E7E2F0E08081F3
:10095000877F8C93A7E2B0E0E7E2F0E080818460DB
:100960008C93A7E2B0E0E7E2F0E0808182608C93B4
:10097000A7E2B0E0E7E2F0E0808181608C93D7C02D
:10098000A7E2B0E0E7E2F0E0808180618C93A7E22B
:10099000B0E0E7E2F0E0808188608C93A7E2B0E00D
:1009A000E7E2F0E080818B7F8C93A7E2B0E0E7E2A2
:1009B000F0E080818D7F8C93A7E2B0E0E7E2F0E089
:1009C00080818E7F8C93B3C0A7E2B0E0E7E2F0E0D5
:1009D000808180618C93A7E2B0E0E7E2F0E0808163
:1009E00088608C93A7E2B0E0E7E2F0E080818B7F43
:1009F0008C93A7E2B0E0E7E2F0E080818D7F8C93FA
:100A0000A7E2B0E0E7E2F0E0808181608C938FC0E4
:100A1000A7E2B0E0E7E2F0E0808180618C93A7E29A
:100A2000B0E0E7E2F0E0808188608C93A7E2B0E07C
:100A3000E7E2F0E080818B7F8C93A7E2B0E0E7E211
:100A4000F0E0808182608C93A7E2B0E0E7E2F0E022
:100A500080818E7F8C936BC0A7E2B0E0E7E2F0E08C
:100A6000808180618C93A7E2B0E0E7E2F0E08081D2
:100A700088608C93A7E2B0E0E7E2F0E080818B7FB2
:100A80008C93A7E2B0E0E7E2F0E0808182608C9393
:100A9000A7E2B0E0E7E2F0E0808181608C9347C09C
:100AA000A7E2B0E0E7E2F0E0808180618C93A7E20A
:100AB000B0E0E7E2F0E0808188608C93A7E2B0E0EC
:100AC000E7E2F0E0808184608C93A7E2B0E0E7E2A7
:100AD000F0E080818D7F8C93A7E2B0E0E7E2F0E068
:100AE00080818E7F8C9323C0A7E2B0E0E7E2F0E044
:100AF000808180618C93A7E2B0E0E7E2F0E0808142
:100B000088608C93A7E2B0E0E7E2F0E08081846047
:100B10008C93A7E2B0E0E7E2F0E080818D7F8C93D8
:100B2000A7E2B0E0E7E2F0E0808181608C938C8105
:100B3000282F30E03E832D838D819E818330910567
:100B400009F46AC02D813E812430310584F48D8101
:100B50009E8181309105A1F12D813E8122303105A8
:100B60000CF044C08D819E810097A1F0ACC02D8116
:100B70003E812530310509F47BC08D819E81853011
:100B800091050CF45FC02D813E812630310509F4BA
:100B900085C099C0A6E2B0E0E6E2F0E080818B7FFC
:100BA0008C93A6E2B0E0E6E2F0E080818D7F8C934A
:100BB000A6E2B0E0E6E2F0E080818E7F8C9383C015
:100BC000A6E2B0E0E6E2F0E080818B7F8C93A6E2C3
:100BD000B0E0E6E2F0E0808182608C93A6E2B0E0D3
:100BE000E6E2F0E080818E7F8C936DC0A6E2B0E0FB
:100BF000E6E2F0E080818B7F8C93A6E2B0E0E6E253
:100C0000F0E0808182608C93A6E2B0E0E6E2F0E062
:100C1000808181608C9357C0A6E2B0E0E6E2F0E00C
:100C2000808184608C93A6E2B0E0E6E2F0E080810F
:100C30008D7F8C93A6E2B0E0E6E2F0E080818E7FCB
:100C40008C9341C0A6E2B0E0E6E2F0E080818460EF
:100C50008C93A6E2B0E0E6E2F0E080818D7F8C9399
:100C6000A6E2B0E0E6E2F0E0808181608C932BC0E8
:100C7000A6E2B0E0E6E2F0E0808184608C93A6E238
:100C8000B0E0E6E2F0E0808182608C93A6E2B0E022
:100C9000E6E2F0E080818E7F8C9315C0A6E2B0E0A2
:100CA000E6E2F0E0808184608C93A6E2B0E0E6E2C8
:100CB000F0E0808182608C93A6E2B0E0E6E2F0E0B2
:100CC000808181608C93A6E2B0E0E6E2F0E0808172
:100CD00080688C932C960FB6F894DEBF0FBECDBF04
:100CE000CF91DF910895DF93CF9300D0CDB7DEB7DA
:100CF000A6E2B0E0E6E2F0E0808180648C93E6E278
:100D0000F0E0808182958F70882F90E081709070E4
:100D10000097A9F31A821982E4E2F0E08081882F1B
:100D200090E09A838983E5E2F0E08081882F90E06B
:100D3000982F88279C0189819A81822B932B9A83F3
:100D40008983A6E2B0E0E6E2F0E0808180618C93E6
:100D500089819A810F900F90CF91DF910895DF9351
:100D6000CF9300D00F92CDB7DEB78A836B838A8191
:100D700086958695869589838981882309F066C042
:100D80008B818823C1F4AAE3B0E0EAE3F0E080813C
:100D9000482F8A81882F90E09C012770307081E075
:100DA00090E0022E02C0880F991F0A94E2F7809506
:100DB00084238C9387C18B818130B9F4AAE3B0E09E
:100DC000EAE3F0E08081482F8A81882F90E09C013F
:100DD0002770307081E090E0022E02C0880F991FCA
:100DE0000A94E2F7842B8C936DC18B81823009F0D9
:100DF00069C1AAE3B0E0EAE3F0E08081482F8A818C
:100E0000882F90E09C012770307081E090E002C054
:100E1000880F991F2A95E2F7809584238C93ABE382
:100E2000B0E0EBE3F0E08081482F8A81882F90E0EA
:100E30009C012770307081E090E0022E02C0880F84
:100E4000991F0A94E2F7842B8C933CC189818130ED
:100E500009F066C08B818823C1F4A7E3B0E0E7E323
:100E6000F0E08081482F8A81882F90E09C012770D4
:100E7000307081E090E0022E02C0880F991F0A9422
:100E8000E2F7809584238C931DC18B818130B9F466
:100E9000A7E3B0E0E7E3F0E08081482F8A81882F64
:100EA00090E09C012770307081E090E0022E02C03B
:100EB000880F991F0A94E2F7842B8C9303C18B81CE
:100EC000823009F0FFC0A7E3B0E0E7E3F0E0808103
:100ED000482F8A81882F90E09C012770307081E034
:100EE00090E002C0880F991F2A95E2F7809584232D
:100EF0008C93A8E3B0E0E8E3F0E08081482F8A819A
:100F0000882F90E09C012770307081E090E0022EE5
:100F100002C0880F991F0A94E2F7842B8C93D2C0E9
:100F20008981823009F066C08B818823C1F4A4E3F3
:100F3000B0E0E4E3F0E08081482F8A81882F90E0E0
:100F40009C012770307081E090E0022E02C0880F73
:100F5000991F0A94E2F7809584238C93B3C08B8108
:100F60008130B9F4A4E3B0E0E4E3F0E08081482FFD
:100F70008A81882F90E09C012770307081E090E09A
:100F8000022E02C0880F991F0A94E2F7842B8C93DB
:100F900099C08B81823009F095C0A4E3B0E0E4E30E
:100FA000F0E08081482F8A81882F90E09C01277093
:100FB000307081E090E002C0880F991F2A95E2F717
:100FC000809584238C93A5E3B0E0E5E3F0E0808195
:100FD000482F8A81882F90E09C012770307081E033
:100FE00090E0022E02C0880F991F0A94E2F7842B2A
:100FF0008C9368C08981833009F064C08B81882319
:10100000C1F4A1E3B0E0E1E3F0E08081482F8A8100
:10101000882F90E09C012770307081E090E0022ED4
:1010200002C0880F991F0A94E2F7809584238C935D
:1010300049C08B818130B9F4A1E3B0E0E1E3F0E095
:101040008081482F8A81882F90E09C012770307022
:1010500081E090E0022E02C0880F991F0A94E2F707
:10106000842B8C932FC08B81823061F5A1E3B0E09B
:10107000E1E3F0E08081482F8A81882F90E09C0195
:101080002770307081E090E002C0880F991F2A9588
:10109000E2F7809584238C93A2E3B0E0E2E3F0E0F2
:1010A0008081482F8A81882F90E09C0127703070C2
:1010B00081E090E0022E02C0880F991F0A94E2F7A7
:1010C000842B8C930F900F900F90CF91DF91089508
:1010D000DF93CF9300D00F92CDB7DEB78A836B83B7
:1010E0008A81869586958695898389818823B1F53D
:1010F0008B818823C1F4ABE3B0E0EBE3F0E08081C7
:10110000482F8A81882F90E09C012770307081E001
:1011100090E0022E02C0880F991F0A94E2F7809592
:1011200084238C93C4C08B81813009F0C0C0ABE3B1
:10113000B0E0EBE3F0E08081482F8A81882F90E0D7
:101140009C012770307081E090E0022E02C0880F71
:10115000991F0A94E2F7842B8C93A9C0898181306E
:10116000B1F58B818823C1F4A8E3B0E0E8E3F0E0B7
:101170008081482F8A81882F90E09C0127703070F1
:1011800081E090E0022E02C0880F991F0A94E2F7D6
:10119000809584238C938BC08B81813009F087C02C
:1011A000A8E3B0E0E8E3F0E08081482F8A81882F4F
:1011B00090E09C012770307081E090E0022E02C028
:1011C000880F991F0A94E2F7842B8C9370C0898151
:1011D0008230B1F58B818823C1F4A5E3B0E0E5E36B
:1011E000F0E08081482F8A81882F90E09C01277051
:1011F000307081E090E0022E02C0880F991F0A949F
:10120000E2F7809584238C9352C08B81813009F062
:101210004EC0A5E3B0E0E5E3F0E08081482F8A818D
:10122000882F90E09C012770307081E090E0022EC2
:1012300002C0880F991F0A94E2F7842B8C9337C061
:1012400089818330A1F58B818823C1F4A2E3B0E0CA
:10125000E2E3F0E08081482F8A81882F90E09C01B2
:101260002770307081E090E0022E02C0880F991F35
:101270000A94E2F7809584238C9319C08B81813086
:10128000B1F4A2E3B0E0E2E3F0E08081482F8A818C
:10129000882F90E09C012770307081E090E0022E52
:1012A00002C0880F991F0A94E2F7842B8C930F9049
:1012B0000F900F90CF91DF910895DF93CF9300D0DF
:1012C00000D0CDB7DEB78A838A81869586958695CC
:1012D000898389818823A9F4E9E3F0E08081282FBC
:1012E00030E08A81882F90E087709070A90102C059
:1012F000559547958A95E2F7CA01582F51705B833F
:1013000049C089818130A9F4E6E3F0E08081282F8B
:1013100030E08A81882F90E087709070A90102C028
:10132000559547958A95E2F7CA01582F51705B830E
:1013300031C089818230A9F4E3E3F0E08081282F75
:1013400030E08A81882F90E087709070A90102C0F8
:10135000559547958A95E2F7CA01582F51705B83DE
:1013600019C089818330A9F4E0E3F0E08081282F5F
:1013700030E08A81882F90E087709070A90102C0C8
:10138000559547958A95E2F7CA01582F51705B83AE
:1013900001C002C08B818C838C810F900F900F90C5
:1013A0000F90CF91DF910895DF93CF9300D000D0BD
:1013B000CDB7DEB7E4E3F0E08FEF8083AFE5B0E0D8
:1013C000EFE5F0E0808180688C93198281E08A8368
:1013D0001B821C8289819A81AB81BC81BC01CD01B9
:1013E0000E943600A6E2B0E0E6E2F0E0808188608C
:1013F0008C93A6E2B0E0E6E2F0E0808180648C931A
:10140000FFCF1F920F920FB60F9211248F93AF93BD
:10141000BF93EF93FF93DF93CF930F92CDB7DEB7D8
:10142000E5E2F0E080818983E5E3F0E08981808373
:10143000A6E2B0E0E6E2F0E0808180648C930F9059
:10144000CF91DF91FF91EF91BF91AF918F910F906D
:0C1450000FBE0F901F901895F894FFCF6E
:00000001FF
