:100000000C942A000C9447000C9447000C94470071
:100010000C9447000C9447000C9447000C94470044
:100020000C9447000C9447000C9447000C94620415
:100030000C9447000C9447000C9447000C94470024
:100040000C9447000C9447000C9447000C94470014
:100050000C94470011241FBECFE5D8E0DEBFCDBF12
:1000600010E0A0E6B0E0E4E2F9E002C005900D92F5
:10007000A037B107D9F710E0A0E7B0E001C01D92AA
:10008000A237B107E1F70E9428040C9490040C9465
:100090000000DF93CF9300D00F92CDB7DEB78A83F5
:1000A0006B838A8186958695869589838981882345
:1000B00009F066C08B818823C1F4AAE3B0E0EAE3CB
:1000C000F0E08081482F8A81882F90E09C01277082
:1000D000307081E090E0022E02C0880F991F0A94D0
:1000E000E2F7809584238C9387C18B818130B9F4AA
:1000F000AAE3B0E0EAE3F0E08081482F8A81882F0C
:1001000090E09C012770307081E090E0022E02C0E8
:10011000880F991F0A94E2F7842B8C936DC18B8111
:10012000823009F069C1AAE3B0E0EAE3F0E080813F
:10013000482F8A81882F90E09C012770307081E0E1
:1001400090E002C0880F991F2A95E2F780958423DA
:100150008C93ABE3B0E0EBE3F0E08081482F8A8141
:10016000882F90E09C012770307081E090E0022E93
:1001700002C0880F991F0A94E2F7842B8C933CC12C
:100180008981813009F066C08B818823C1F4A7E39F
:10019000B0E0E7E3F0E08081482F8A81882F90E08B
:1001A0009C012770307081E090E0022E02C0880F21
:1001B000991F0A94E2F7809584238C931DC18B814B
:1001C0008130B9F4A7E3B0E0E7E3F0E08081482FA5
:1001D0008A81882F90E09C012770307081E090E048
:1001E000022E02C0880F991F0A94E2F7842B8C9389
:1001F00003C18B81823009F0FFC0A7E3B0E0E7E3E1
:10020000F0E08081482F8A81882F90E09C01277040
:10021000307081E090E002C0880F991F2A95E2F7C4
:10022000809584238C93A8E3B0E0E8E3F0E080813C
:10023000482F8A81882F90E09C012770307081E0E0
:1002400090E0022E02C0880F991F0A94E2F7842BD7
:100250008C93D2C08981823009F066C08B8188235B
:10026000C1F4A4E3B0E0E4E3F0E08081482F8A81A8
:10027000882F90E09C012770307081E090E0022E82
:1002800002C0880F991F0A94E2F7809584238C930B
:10029000B3C08B818130B9F4A4E3B0E0E4E3F0E0D3
:1002A0008081482F8A81882F90E09C0127703070D0
:1002B00081E090E0022E02C0880F991F0A94E2F7B5
:1002C000842B8C9399C08B81823009F095C0A4E374
:1002D000B0E0E4E3F0E08081482F8A81882F90E04D
:1002E0009C012770307081E090E002C0880F991F58
:1002F0002A95E2F7809584238C93A5E3B0E0E5E3AB
:10030000F0E08081482F8A81882F90E09C0127703F
:10031000307081E090E0022E02C0880F991F0A948D
:10032000E2F7842B8C9368C08981833009F064C024
:100330008B818823C1F4A1E3B0E0E1E3F0E08081A8
:10034000482F8A81882F90E09C012770307081E0CF
:1003500090E0022E02C0880F991F0A94E2F7809560
:1003600084238C9349C08B818130B9F4A1E3B0E040
:10037000E1E3F0E08081482F8A81882F90E09C01A2
:100380002770307081E090E0022E02C0880F991F24
:100390000A94E2F7842B8C932FC08B81823061F515
:1003A000A1E3B0E0E1E3F0E08081482F8A81882F6B
:1003B00090E09C012770307081E090E002C0880FCF
:1003C000991F2A95E2F7809584238C93A2E3B0E0ED
:1003D000E2E3F0E08081482F8A81882F90E09C0141
:1003E0002770307081E090E0022E02C0880F991FC4
:1003F0000A94E2F7842B8C930F900F900F90CF917B
:10040000DF910895DF93CF9300D00F92CDB7DEB781
:100410008A836B838A81869586958695898389816F
:100420008823B1F58B818823C1F4ABE3B0E0EBE323
:10043000F0E08081482F8A81882F90E09C0127700E
:10044000307081E090E0022E02C0880F991F0A945C
:10045000E2F7809584238C93C4C08B81813009F0AE
:10046000C0C0ABE3B0E0EBE3F0E08081482F8A81CD
:10047000882F90E09C012770307081E090E0022E80
:1004800002C0880F991F0A94E2F7842B8C93A9C0AD
:1004900089818130B1F58B818823C1F4A8E3B0E074
:1004A000E8E3F0E08081482F8A81882F90E09C016A
:1004B0002770307081E090E0022E02C0880F991FF3
:1004C0000A94E2F7809584238C938BC08B818130D2
:1004D00009F087C0A8E3B0E0E8E3F0E08081482FAE
:1004E0008A81882F90E09C012770307081E090E035
:1004F000022E02C0880F991F0A94E2F7842B8C9376
:1005000070C089818230B1F58B818823C1F4A5E365
:10051000B0E0E5E3F0E08081482F8A81882F90E009
:100520009C012770307081E090E0022E02C0880F9D
:10053000991F0A94E2F7809584238C9352C08B8193
:10054000813009F04EC0A5E3B0E0E5E3F0E0808142
:10055000482F8A81882F90E09C012770307081E0BD
:1005600090E0022E02C0880F991F0A94E2F7842BB4
:100570008C9337C089818330A1F58B818823C1F4A6
:10058000A2E3B0E0E2E3F0E08081482F8A81882F87
:1005900090E09C012770307081E090E0022E02C054
:1005A000880F991F0A94E2F7809584238C9319C0D1
:1005B0008B818130B1F4A2E3B0E0E2E3F0E080812E
:1005C000482F8A81882F90E09C012770307081E04D
:1005D00090E0022E02C0880F991F0A94E2F7842B44
:1005E0008C930F900F900F90CF91DF910895DF9330
:1005F000CF9300D000D0CDB7DEB78A838A818695AD
:1006000086958695898389818823A9F4E9E3F0E0BA
:100610008081282F30E08A81882F90E08770907049
:10062000A90102C0559547958A95E2F7CA01582F4E
:1006300051705B8349C089818130A9F4E6E3F0E021
:100640008081282F30E08A81882F90E08770907019
:10065000A90102C0559547958A95E2F7CA01582F1E
:1006600051705B8331C089818230A9F4E3E3F0E00B
:100670008081282F30E08A81882F90E087709070E9
:10068000A90102C0559547958A95E2F7CA01582FEE
:1006900051705B8319C089818330A9F4E0E3F0E0F5
:1006A0008081282F30E08A81882F90E087709070B9
:1006B000A90102C0559547958A95E2F7CA01582FBE
:1006C00051705B8301C002C08B818C838C810F9041
:1006D0000F900F900F90CF91DF910895DF93CF93FC
:1006E000CDB7DEB780E062E00E94490088E061E0BB
:1006F0000E944900CF91DF910895DF93CF93CDB74A
:10070000DEB7E9E3F0E08081882F90E0817090709F
:10071000882319F01092710003C081E0809371006A
:10072000CF91DF910895DF93CF93CDB7DEB790914E
:10073000700080917100981751F09091710088E0DD
:10074000692F0E9402028091710080937000CF9106
:10075000DF910895DF93CF930F92CDB7DEB7198263
:100760006FC08981282F30E0C901880F991F880F39
:10077000991F820F931FFC01EC59FF4F8081882342
:1007800089F58981282F30E0C901880F991F880FCA
:10079000991F820F931FFC01E05AFF4F0190F081D7
:1007A000E02D09958981482F50E08981282F30E07C
:1007B000C901880F991F880F991F820F931FFC0191
:1007C000EE59FF4F808191818150282FCA01880FF7
:1007D000991F880F991F840F951FFC01EC59FF4F3B
:1007E00020832BC08981282F30E0C901880F991FF1
:1007F000880F991F820F931FFC01EC59FF4F8081D6
:100800008F3FD9F08981282F30E0C901880F991FC7
:10081000880F991F820F931FFC01EC59FF4F8081B5
:10082000482F4150C901880F991F880F991F820FC7
:10083000931FFC01EC59FF4F408389818F5F8983AF
:100840008981833008F48DCF0F90CF91DF91089587
:10085000DF93CF93CDB7DEB7A3E5B0E0E3E5F0E0FB
:1008600080818F7B8C93A3E5B0E0E3E5F0E08081AD
:10087000877F8C93AFE5B0E0EFE5F0E080818068A2
:100880008C93A9E5B0E0E9E5F0E0808181608C938C
:10089000E2E5F0E088EF8083A3E5B0E0E3E5F0E097
:1008A000808184608C93A3E5B0E0E3E5F0E0808193
:1008B0008D7F8C93A3E5B0E0E3E5F0E0808181607B
:1008C0008C93FFCF1F920F920FB60F9211242F938C
:1008D0003F934F935F936F937F938F939F93AF93C8
:1008E000BF93EF93FF93DF93CF93CDB7DEB7E2E5EE
:1008F000F0E088EF80830E94AA03CF91DF91FF91FF
:10090000EF91BF91AF919F918F917F916F915F9187
:100910004F913F912F910F900FBE0F901F90189500
:04092000F894FFCF79
:100924006E030000007D03960000930396000A0006
:00000001FF
