:100000000C942A000C943F000C943F000C943F0089
:100010000C943F000C943F000C943F000C943F0064
:100020000C943F000C943F000C943F000C943F0054
:100030000C943F000C943F000C943F000C943F0044
:100040000C943F000C943F000C943F000C943F0034
:100050000C943F0011241FBECFE5D8E0DEBFCDBF1A
:1000600010E0A0E6B0E0ECE5F0E202C005900D92F1
:10007000A837B107D9F70E94270F0C942C100C94C5
:100080000000EF92FF920F931F937B018C0120E001
:1000900030E040E05FE40E94410388238CF0C80117
:1000A000B70120E030E040E05FE40E94B9010E9427
:1000B000A1039B01AC01205030404040504806C095
:1000C000C801B7010E94A1039B01AC01B901CA019B
:1000D0001F910F91FF90EF900895A0E0B0E0E3E74B
:1000E000F0E00C94F50FDC012B01FA019C919230A9
:1000F00008F439C1EB018881823008F433C19430AF
:1001000069F4843009F02FC111969C91119789816F
:10011000981709F428C1A0E6B0E025C1843009F49D
:1001200021C18230A9F4923009F01DC19A01AD01BC
:1001300088E0EA010990AE01E90109929E0181502F
:10014000C1F7E201898111969C918923818308C1BD
:10015000923009F407C112962D903C901397EB0151
:100160008A819B811496AD90BD90CD90DC901797BD
:10017000EC80FD800E811F819101281B390BB90194
:1001800037FF04C066277727621B730B6032710547
:100190000CF061C0121613066CF537014801062EEB
:1001A00004C096948794779467940A94D2F721E0D8
:1001B00030E040E050E004C0220F331F441F551FC1
:1001C0006A95D2F721503040404050402E213F21C7
:1001D00040235123211531054105510521F021E02E
:1001E00030E040E050E079018A01E628F72808294C
:1001F00019293CC0232BD1F1260E371E35014601AB
:10020000062E04C096948794779467940A94D2F744
:1002100021E030E040E050E004C0220F331F441FD3
:10022000551F6A95D2F721503040404050402A2156
:100230003B214C215D21211531054105510521F05E
:1002400021E030E040E050E059016A01A628B728DB
:10025000C828D9280BC0821593052CF01C01AA24AC
:10026000BB24650103C0EE24FF24870111969C91F5
:10027000D20111968C91981709F445C0992339F051
:10028000A80197012A193B094C095D0906C0A6017E
:1002900095012E193F09400B510B57FD08C01182E3
:1002A0003382228224833583468357831DC081E0B5
:1002B00081833382228288279927DC01821B930B5A
:1002C000A40BB50B84839583A683B7830DC0220F3F
:1002D000331F441F551F24833583468357838281F0
:1002E000938101979383828324813581468157814D
:1002F000DA01C9010197A109B1098F5F9F4FAF4F83
:10030000BF4328F30BC0918333822282EA0CFB1C8B
:100310000C1D1D1DE482F5820683178383E0808314
:10032000248135814681578157FF1AC0C901AA2708
:1003300097FDA095BA2F81709070A070B0705695FF
:10034000479537952795822B932BA42BB52B848328
:100350009583A683B7838281938101969383828359
:10036000DF0101C0D201CD01CDB7DEB7E2E10C94CF
:100370001110A0E2B0E0EFEBF1E00C940110698302
:100380007A838B839C832D833E834F835887E9E058
:10039000EE2EF12CEC0EFD1ECE010196B7010E944F
:1003A000CA048E010F5E1F4FCE010596B8010E9450
:1003B000CA048A8991E089278A8BC701B801AE01F6
:1003C000475E5F4F0E946D000E94F503A096E6E035
:1003D0000C941D10A0E2B0E0E0EFF1E00C940110ED
:1003E00069837A838B839C832D833E834F835887D5
:1003F000F9E0EF2EF12CEC0EFD1ECE010196B701B7
:100400000E94CA048E010F5E1F4FCE010596B801EF
:100410000E94CA04C701B801AE01475E5F4F0E9447
:100420006D000E94F503A096E6E00C941D10A0E27A
:10043000B0E0EDE1F2E00C94F50F69837A838B83F1
:100440009C832D833E834F835887CE010196BE0146
:10045000675F7F4F0E94CA04CE010596BE016F5EA2
:100460007F4F0E94CA049985923088F08989823032
:10047000C8F0943019F4823051F404C0843029F467
:10048000923081F480E690E0C6C0923049F420E0DA
:100490009A858A89981321E02A87CE010996BBC0E4
:1004A000823049F420E09A858A89981321E02A8BCA
:1004B000CE014196B0C02D843E844F8458886D880B
:1004C0007E888F88988CEE24FF248701AA24BB2481
:1004D000650140E050E060E070E0E0E0F0E0C10184
:1004E00081709070892BE9F0E60CF71C081D191D2E
:1004F0009A01AB012A0D3B1D4C1D5D1D80E090E073
:10050000A0E0B0E0E614F7040805190520F481E046
:1005100090E0A0E0B0E0BA01A901480F591F6A1F9E
:100520007B1FAA0CBB1CCC1CDD1C97FE08C081E005
:1005300090E0A0E0B0E0A82AB92ACA2ADB2A3196C6
:10054000E032F10549F0660C771C881C991C569422
:10055000479437942794C3CFFA85EA892B893C893D
:100560008B859C85280F391F2E5F3F4F17C0CA010E
:1005700081709070892B61F016950795F794E79438
:1005800080E090E0A0E0B0E8E82AF92A0A2B1B2BD3
:1005900076956795579547952F5F3F4F77FDE7CF46
:1005A0000CC0440F551F661F771F17FD4160EE0CEE
:1005B000FF1C001F111F21503040403090E05907B0
:1005C00090E0690790E4790760F32B8F3C8FDB01A3
:1005D000CA018F779070A070B07080349105A1052A
:1005E000B10561F447FD0AC0E114F10401051105EC
:1005F00029F0405C5F4F6F4F7F4F40781A8EFE1797
:1006000011F081E08A8F4D8F5E8F6F8F78A383E02A
:10061000898FCE0149960E94F503A096E2E10C94E1
:100620001110A8E1B0E0E7E1F3E00C940110698358
:100630007A838B839C832D833E834F83588789E005
:10064000E82EF12CEC0EFD1ECE010196B7010E94A2
:10065000CA048E010F5E1F4FCE010596B8010E949D
:10066000CA048985823040F08989823028F0C70128
:10067000B8010E94420501C08FEF6896E6E00C9435
:100680001D10A8E1B0E0E7E4F3E00C9401106983E9
:100690007A838B839C832D833E834F83588789E0A5
:1006A000E82EF12CEC0EFD1ECE010196B7010E9442
:1006B000CA048E010F5E1F4FCE010596B8010E943D
:1006C000CA048985823040F08989823028F0C701C8
:1006D000B8010E94420501C08FEF6896E6E00C94D5
:1006E0001D10A8E1B0E0E7E7F3E00C940110698386
:1006F0007A838B839C832D833E834F83588789E045
:10070000E82EF12CEC0EFD1ECE010196B7010E94E1
:10071000CA048E010F5E1F4FCE010596B8010E94DC
:10072000CA048985823040F08989823028F0C70167
:10073000B8010E94420501C081E06896E6E00C9491
:100740001D10ACE0B0E0E7EAF3E00C94051069831B
:100750007A838B839C83CE010196BE016B5F7F4FB2
:100760000E94CA048D81823061F1823050F1843060
:1007700021F48E81882351F12EC02F81388537FDD9
:1007800020C06E812F3131051CF06623F9F023C0A3
:100790008EE190E0821B930B29853A854B855C8521
:1007A00004C056954795379527958A95D2F76623C5
:1007B000B1F050954095309521953F4F4F4F5F4F89
:1007C0000EC020E030E040E050E009C02FEF3FEFE6
:1007D0004FEF5FE704C020E030E040E050E8B901AF
:1007E000CA012C96E2E00C942110DF92EF92FF9266
:1007F0000F931F93FC01E480F58006811781D1805F
:100800008081823048F480E090E0A0E1B0E0E82A06
:10081000F92A0A2B1B2BA5C0843009F49FC0823013
:1008200021F4EE24FF24870105C0E114F104010541
:10083000110519F4E0E0F0E096C0628173819FEF4A
:10084000623879070CF05BC022E83FEF261B370BBC
:100850002A3131052CF020E030E040E050E02AC0A1
:10086000B801A701022E04C0769567955795479564
:100870000A94D2F781E090E0A0E0B0E004C0880FD5
:10088000991FAA1FBB1F2A95D2F70197A109B10989
:100890008E219F21A023B1230097A105B10521F04E
:1008A00081E090E0A0E0B0E09A01AB01282B392B69
:1008B0004A2B5B2BDA01C9018F779070A070B07062
:1008C00080349105A105B10539F427FF09C0205CEA
:1008D0003F4F4F4F5F4F04C0215C3F4F4F4F5F4F23
:1008E000E0E0F0E02030A0E03A07A0E04A07A0E412
:1008F0005A0710F0E1E0F0E079018A0127C0603882
:10090000710564F5FB01E158FF4FD801C7018F77EE
:100910009070A070B07080349105A105B10539F4D4
:10092000E7FE0DC080E490E0A0E0B0E004C08FE3FB
:1009300090E0A0E0B0E0E80EF91E0A1F1B1F17FFB1
:1009400005C016950795F794E794319687E01695BC
:100950000795F794E7948A95D1F705C0EE24FF2414
:100960008701EFEFF0E06E2F679566276795902F70
:100970009F77D794DD24D7948E2F8695492F462BC9
:10098000582F5D29B701CA011F910F91FF90EF9079
:10099000DF900895FC01DB01408151812281622FAB
:1009A0006F7770E0221F2227221F9381892F880FE3
:1009B000822B282F30E0991F9927991F11969C931D
:1009C000119721153105A9F54115510561057105ED
:1009D00011F482E037C082E89FEF13969C938E93C8
:1009E00012979A01AB0167E0220F331F441F551F76
:1009F0006A95D1F783E08C930DC0220F331F441FFB
:100A0000551F12968D919C911397019713969C9365
:100A10008E931297203080E0380780E0480780E40A
:100A2000580758F314962D933D934D935C93179765
:100A300008952F3F310579F4411551056105710580
:100A400019F484E08C93089564FF03C081E08C93D3
:100A500012C01C9210C02F57304013963C932E9317
:100A6000129783E08C9387E0440F551F661F771F12
:100A70008A95D1F7706414964D935D936D937C9332
:100A8000179708951F93DC01FB019C91923008F4A5
:100A900047C08081823008F443C0943051F41196ED
:100AA0001C91843099F58181682F70E0611B710978
:100AB0003FC0843021F0923031F48230B9F181812D
:100AC000882389F12DC011961C9111978230F1F085
:100AD00081811817D9F412962D913C911397828138
:100AE00093818217930794F028173907BCF0149666
:100AF0008D919D910D90BC91A02D248135814681D1
:100B00005781281739074A075B0718F4112341F06A
:100B10000AC082179307A407B50740F4112319F000
:100B200061E070E005C06FEF7FEF02C060E070E051
:100B3000CB011F910895DF93CF9300D00F92CDB7D3
:100B4000DEB78A836B838A818695869586958983AD
:100B500089818823B1F58B818823C1F4AAE3B0E0B1
:100B6000EAE3F0E08081482F8A81882F90E09C01A1
:100B70002770307081E090E0022E02C0880F991F2C
:100B80000A94E2F7809584238C93C4C08B818130D2
:100B900009F0C0C0AAE3B0E0EAE3F0E08081482FAA
:100BA0008A81882F90E09C012770307081E090E06E
:100BB000022E02C0880F991F0A94E2F7842B8C93AF
:100BC000A9C089818130B1F58B818823C1F4A7E365
:100BD000B0E0E7E3F0E08081482F8A81882F90E041
:100BE0009C012770307081E090E0022E02C0880FD7
:100BF000991F0A94E2F7809584238C938BC08B8194
:100C0000813009F087C0A7E3B0E0E7E3F0E080813E
:100C1000482F8A81882F90E09C012770307081E0F6
:100C200090E0022E02C0880F991F0A94E2F7842BED
:100C30008C9370C089818230B1F58B818823C1F497
:100C4000A4E3B0E0E4E3F0E08081482F8A81882FBC
:100C500090E09C012770307081E090E0022E02C08D
:100C6000880F991F0A94E2F7809584238C9352C0D1
:100C70008B81813009F04EC0A4E3B0E0E4E3F0E002
:100C80008081482F8A81882F90E09C0127703070E6
:100C900081E090E0022E02C0880F991F0A94E2F7CB
:100CA000842B8C9337C089818330A1F58B81882375
:100CB000C1F4A1E3B0E0E1E3F0E08081482F8A8154
:100CC000882F90E09C012770307081E090E0022E28
:100CD00002C0880F991F0A94E2F7809584238C93B1
:100CE00019C08B818130B1F4A1E3B0E0E1E3F0E021
:100CF0008081482F8A81882F90E09C012770307076
:100D000081E090E0022E02C0880F991F0A94E2F75A
:100D1000842B8C930F900F900F90CF91DF910895BB
:100D2000DF93CF9300D00F92CDB7DEB78A836B836A
:100D30008A81869586958695898389818823B1F5F0
:100D40008B818823C1F4ABE3B0E0EBE3F0E080817A
:100D5000482F8A81882F90E09C012770307081E0B5
:100D600090E0022E02C0880F991F0A94E2F7809546
:100D700084238C93C4C08B81813009F0C0C0ABE365
:100D8000B0E0EBE3F0E08081482F8A81882F90E08B
:100D90009C012770307081E090E0022E02C0880F25
:100DA000991F0A94E2F7842B8C93A9C08981813022
:100DB000B1F58B818823C1F4A8E3B0E0E8E3F0E06B
:100DC0008081482F8A81882F90E09C0127703070A5
:100DD00081E090E0022E02C0880F991F0A94E2F78A
:100DE000809584238C938BC08B81813009F087C0E0
:100DF000A8E3B0E0E8E3F0E08081482F8A81882F03
:100E000090E09C012770307081E090E0022E02C0DB
:100E1000880F991F0A94E2F7842B8C9370C0898104
:100E20008230B1F58B818823C1F4A5E3B0E0E5E31E
:100E3000F0E08081482F8A81882F90E09C01277004
:100E4000307081E090E0022E02C0880F991F0A9452
:100E5000E2F7809584238C9352C08B81813009F016
:100E60004EC0A5E3B0E0E5E3F0E08081482F8A8141
:100E7000882F90E09C012770307081E090E0022E76
:100E800002C0880F991F0A94E2F7842B8C9337C015
:100E900089818330A1F58B818823C1F4A2E3B0E07E
:100EA000E2E3F0E08081482F8A81882F90E09C0166
:100EB0002770307081E090E0022E02C0880F991FE9
:100EC0000A94E2F7809584238C9319C08B8181303A
:100ED000B1F4A2E3B0E0E2E3F0E08081482F8A8140
:100EE000882F90E09C012770307081E090E0022E06
:100EF00002C0880F991F0A94E2F7842B8C930F90FD
:100F00000F900F90CF91DF910895DF93CF9300D092
:100F100000D0CDB7DEB78A838A818695869586957F
:100F2000898389818823A9F4E9E3F0E08081282F6F
:100F300030E08A81882F90E087709070A90102C00C
:100F4000559547958A95E2F7CA01582F51705B83F2
:100F500049C089818130A9F4E6E3F0E08081282F3F
:100F600030E08A81882F90E087709070A90102C0DC
:100F7000559547958A95E2F7CA01582F51705B83C2
:100F800031C089818230A9F4E3E3F0E08081282F29
:100F900030E08A81882F90E087709070A90102C0AC
:100FA000559547958A95E2F7CA01582F51705B8392
:100FB00019C089818330A9F4E0E3F0E08081282F13
:100FC00030E08A81882F90E087709070A90102C07C
:100FD000559547958A95E2F7CA01582F51705B8362
:100FE00001C002C08B818C838C810F900F900F9079
:100FF0000F90CF91DF910895DF93CF9300D0CDB7BD
:10100000DEB71A820BC08A8161E00E949B058A814B
:1010100061E00E9490068A818F5F8A838A81843092
:1010200090F384E089830BC0898160E00E949B0576
:10103000898161E00E94900689818F5F898389811F
:10104000883090F30F900F90CF91DF910895DF9348
:10105000CF93CDB7DEB761970FB6F894DEBF0FBE62
:10106000CDBF1F86198AA7C0898960E00E949006BB
:1010700084E0888B95C088890E948507882309F0C1
:101080008CC080E090E0A8E4B2E48B879C87AD87B9
:10109000BE876B857C858D859E8520E030E04AEF9C
:1010A00054E40E941702DC01CB018F839887A98743
:1010B000BA876F81788589859A8520E030E040E89D
:1010C0005FE30E94710388232CF481E090E09E830B
:1010D0008D833FC06F81788589859A8520E03FEFB9
:1010E0004FE757E40E94110318164CF56B857C8579
:1010F0008D859E8520E030E040E251E40E94170299
:10110000DC01CB01BC01CD010E944100DC01CB011F
:101110009E838D830FC088EC90E09C838B838B81B2
:101120009C810197F1F79C838B838D819E81019730
:101130009E838D838D819E81009769F714C06F8196
:10114000788589859A850E944100DC01CB019E83C8
:101150008D838D819E819A83898389819A8101976C
:10116000F1F79A83898388890E9485078130A9F4E1
:101170008989482F50E08889882F90E09C0124506D
:101180003040CA01880F991F880F991F820F931F43
:10119000FC01E859FF4F80818F8788898F5F888B9A
:1011A0008889883008F467CF898961E00E949006B9
:1011B00089898F5F898B8989843008F455CF8F8521
:1011C00061960FB6F894DEBF0FBECDBFCF91DF9111
:1011D0000895DF93CF93CDB7DEB72F970FB6F8946E
:1011E000DEBF0FBECDBF8F8780E161E00E949B050F
:1011F00080E160E00E94900681E161E00E949B0531
:1012000081E160E00E94900688E161E00E949B0518
:101210008F85982F917088E1692F0E94900689E14F
:1012200061E00E949B058F858695982F917089E1DA
:10123000692F0E9490068AE161E00E949B058F85DC
:1012400086958695982F91708AE1692F0E94900665
:101250008BE161E00E949B058F858695869586953A
:10126000982F91708BE1692F0E9490068CE161E0CC
:101270000E949B058F8582958F70982F91708CE1CD
:10128000692F0E9490068DE161E00E949B058F8589
:10129000829586958770982F91708DE1692F0E94B5
:1012A00090068EE161E00E949B058F858295869570
:1012B00086958370982F91708EE1692F0E94900619
:1012C0008FE161E00E949B058F85982F991F9927D8
:1012D000991F8FE1692F0E94900682E161E00E94D0
:1012E0009B0582E161E00E94900680E090E0A0E032
:1012F000B0E48B879C87AD87BE876B857C858D85A9
:101300009E8520E030E04AEF54E40E941702DC01A1
:10131000CB018F839887A987BA876F817885898564
:101320009A8520E030E040E85FE30E947103882363
:101330002CF481E090E09E838D833FC06F8178859F
:1013400089859A8520E03FEF4FE757E40E9411031B
:1013500018164CF56B857C858D859E8520E030E0E8
:1013600040E251E40E941702DC01CB01BC01CD0137
:101370000E944100DC01CB019E838D830FC088EC6D
:1013800090E09C838B838B819C810197F1F79C83F8
:101390008B838D819E8101979E838D838D819E811C
:1013A000009769F714C06F81788589859A850E94B6
:1013B0004100DC01CB019E838D838D819E819A83C8
:1013C000898389819A810197F1F79A83898382E1E0
:1013D00060E00E9490062F960FB6F894DEBF0FBE15
:1013E000CDBFCF91DF910895DF93CF93CDB7DEB717
:1013F0002F970FB6F894DEBF0FBECDBF8F8780E169
:1014000061E00E949B0580E161E00E94900681E11D
:1014100061E00E949B0581E160E00E94900688E106
:1014200061E00E949B058F85982F917088E1692F5C
:101430000E94900689E161E00E949B058F85869558
:10144000982F917089E1692F0E9490068AE161E0EE
:101450000E949B058F8586958695982F91708AE1CD
:10146000692F0E9490068BE161E00E949B058F85A9
:10147000869586958695982F91708BE1692F0E94AD
:1014800090068CE161E00E949B058F8582958F70AC
:10149000982F91708CE1692F0E9490068DE161E098
:1014A0000E949B058F85829586958770982F9170F5
:1014B0008DE1692F0E9490068EE161E00E949B05FC
:1014C0008F858295869586958370982F91708EE191
:1014D000692F0E9490068FE161E00E949B058F8535
:1014E000982F991F9927991F8FE1692F0E949006C5
:1014F00082E161E00E949B0582E161E00E9490062A
:1015000080E090E0A0E0B0E48B879C87AD87BE8749
:101510006B857C858D859E8520E030E04AEF54E424
:101520000E941702DC01CB018F839887A987BA87B5
:101530006F81788589859A8520E030E040E85FE317
:101540000E94710388232CF481E090E09E838D83B8
:101550003FC06F81788589859A8520E03FEF4FE70E
:1015600057E40E94110318164CF56B857C858D8518
:101570009E8520E030E040E251E40E941702DC0149
:10158000CB01BC01CD010E944100DC01CB019E8357
:101590008D830FC088EC90E09C838B838B819C8132
:1015A0000197F1F79C838B838D819E8101979E83A8
:1015B0008D838D819E81009769F714C06F81788536
:1015C00089859A850E944100DC01CB019E838D8331
:1015D0008D819E819A83898389819A810197F1F710
:1015E0009A83898382E160E00E9490062F960FB66D
:1015F000F894DEBF0FBECDBFCF91DF910895DF938A
:10160000CF93CDB7DEB7E8970FB6F894DEBF0FBE25
:10161000CDBF80E090E0A8E4B2E48DAB9EABAFAB71
:10162000B8AF6DA97EA98FA998AD20E030E04AEF50
:1016300054E40E941702DC01CB0189AB9AABABAB3F
:10164000BCAB69A97AA98BA99CA920E030E040E84D
:101650005FE30E94710388232CF481E090E098AB53
:101660008FA73FC069A97AA98BA99CA920E03FEF69
:101670004FE757E40E94110318164CF56DA97EA997
:101680008FA998AD20E030E040E251E40E941702BB
:10169000DC01CB01BC01CD010E944100DC01CB018A
:1016A00098AB8FA70FC088EC90E09EA78DA78DA563
:1016B0009EA50197F1F79EA78DA78FA598A90197E1
:1016C00098AB8FA78FA598A9009769F714C069A94F
:1016D0007AA98BA99CA90E944100DC01CB0198AB9F
:1016E0008FA78FA598A99CA78BA78BA59CA50197D1
:1016F000F1F79CA78BA788E30E94E90880E090E0BF
:10170000A0E0B0E48FA398A7A9A7BAA76FA178A576
:1017100089A59AA520E030E04AEF54E40E94170220
:10172000DC01CB018BA39CA3ADA3BEA36BA17CA1C9
:101730008DA19EA120E030E040E85FE30E947103AC
:1017400088232CF481E090E09AA389A33FC06BA189
:101750007CA18DA19EA120E03FEF4FE757E40E94BE
:10176000110318164CF56FA178A589A59AA520E05C
:1017700030E040E251E40E941702DC01CB01BC01E1
:10178000CD010E944100DC01CB019AA389A30FC0C7
:1017900088EC90E098A38F8F8F8D98A10197F1F737
:1017A00098A38F8F89A19AA101979AA389A389A150
:1017B0009AA1009769F714C06BA17CA18DA19EA18D
:1017C0000E944100DC01CB019AA389A389A19AA1BF
:1017D0009E8F8D8F8D8D9E8D0197F1F79E8F8D8FB2
:1017E0008CE00E94E90880E090E0A0E0B0E4898FFE
:1017F0009A8FAB8FBC8F698D7A8D8B8D9C8D20E0FD
:1018000030E04AEF54E40E941702DC01CB018D8BDB
:101810009E8BAF8BB88F6D897E898F89988D20E0E4
:1018200030E040E85FE30E94710388232CF481E0FC
:1018300090E09C8B8B8B3FC06D897E898F89988DC2
:1018400020E03FEF4FE757E40E94110318164CF5D4
:10185000698D7A8D8B8D9C8D20E030E040E251E4E3
:101860000E941702DC01CB01BC01CD010E944100A6
:10187000DC01CB019C8B8B8B0FC088EC90E09A8BAA
:10188000898B89899A890197F1F79A8B898B8B8942
:101890009C8901979C8B8B8B8B899C89009769F71E
:1018A00014C06D897E898F89988D0E944100DC016A
:1018B000CB019C8B8B8B8B899C89988B8F878F8599
:1018C00098890197F1F7988B8F8781E00E94E9084A
:1018D00080E090E0A0E0B0E48B879C87AD87BE8776
:1018E0006B857C858D859E8520E030E04AEF54E451
:1018F0000E941702DC01CB018F839887A987BA87E2
:101900006F81788589859A8520E030E040E85FE343
:101910000E94710388232CF481E090E09E838D83E4
:101920003FC06F81788589859A8520E03FEF4FE73A
:1019300057E40E94110318164CF56B857C858D8544
:101940009E8520E030E040E251E40E941702DC0175
:10195000CB01BC01CD010E944100DC01CB019E8383
:101960008D830FC088EC90E09C838B838B819C815E
:101970000197F1F79C838B838D819E8101979E83D4
:101980008D838D819E81009769F714C06F81788562
:1019900089859A850E944100DC01CB019E838D835D
:1019A0008D819E819A83898389819A810197F1F73C
:1019B0009A838983E8960FB6F894DEBF0FBECDBF39
:1019C000CF91DF910895DF93CF9300D000D0CDB7B2
:1019D000DEB79A83898388E161E00E949B0589E1F3
:1019E00061E00E949B058AE161E00E949B058BE11A
:1019F00061E00E949B058CE161E00E949B058DE106
:101A000061E00E949B058EE161E00E949B058FE1F1
:101A100061E00E949B0586E061E00E949B0586E0F4
:101A200061E00E94900689819A819C838B838B81DF
:101A30009C818530910509F4F2C08B819C818630B0
:101A400091051CF58B819C818230910509F484C03D
:101A50008B819C81833091055CF48B819C81009704
:101A6000C9F18B819C818130910509F454C09CC1DE
:101A70008B819C818330910509F48FC08B819C817F
:101A80008430910509F4AAC08FC18B819C81883074
:101A9000910509F427C18B819C81893091056CF4F3
:101AA0008B819C818630910509F4DAC08B819C8101
:101AB0008730910509F4F5C077C18B819C8189300D
:101AC000910509F430C18B819C818A30910509F41C
:101AD0004BC16AC188E160E00E94900689E160E044
:101AE0000E9490068AE160E00E9490068BE160E02F
:101AF0000E9490068CE160E00E9490068DE161E01A
:101B00000E9490068EE160E00E9490068FE161E005
:101B10000E94900649C188E161E00E94900689E137
:101B200060E00E9490068AE160E00E9490068BE1EE
:101B300061E00E9490068CE161E00E9490068DE1D8
:101B400061E00E9490068EE161E00E9490068FE1C4
:101B500061E00E94900628C188E160E00E94900642
:101B600089E160E00E9490068AE161E00E949006AF
:101B70008BE160E00E9490068CE160E00E9490069C
:101B80008DE160E00E9490068EE161E00E94900687
:101B90008FE161E00E94900607C188E160E00E9449
:101BA000900689E160E00E9490068AE160E00E9470
:101BB00090068BE160E00E9490068CE161E00E945B
:101BC00090068DE160E00E9490068EE161E00E9447
:101BD00090068FE161E00E949006E6C088E161E036
:101BE0000E94900689E160E00E9490068AE160E030
:101BF0000E9490068BE161E00E9490068CE161E01A
:101C00000E9490068DE160E00E9490068EE160E007
:101C10000E9490068FE161E00E949006C5C088E1B5
:101C200060E00E94900689E161E00E9490068AE1EE
:101C300060E00E9490068BE160E00E9490068CE1DB
:101C400061E00E9490068DE160E00E9490068EE1C6
:101C500060E00E9490068FE161E00E949006A4C0BF
:101C600088E160E00E94900689E161E00E949006B0
:101C70008AE160E00E9490068BE160E00E9490069D
:101C80008CE160E00E9490068DE160E00E94900689
:101C90008EE160E00E9490068FE161E00E94900674
:101CA00083C088E160E00E94900689E160E00E94C4
:101CB00090068AE160E00E9490068BE161E00E945C
:101CC00090068CE161E00E9490068DE161E00E9447
:101CD00090068EE161E00E9490068FE161E00E9433
:101CE000900662C088E160E00E94900689E160E0B1
:101CF0000E9490068AE160E00E9490068BE160E01D
:101D00000E9490068CE160E00E9490068DE160E008
:101D10000E9490068EE160E00E9490068FE161E0F3
:101D20000E94900641C088E160E00E94900689E12F
:101D300060E00E9490068AE160E00E9490068BE1DC
:101D400060E00E9490068CE161E00E9490068DE1C7
:101D500060E00E9490068EE160E00E9490068FE1B4
:101D600061E00E94900620C088E161E00E94900638
:101D700089E161E00E9490068AE161E00E9490069C
:101D80008BE161E00E9490068CE161E00E94900688
:101D90008DE161E00E9490068EE161E00E94900674
:101DA0008FE160E00E9490060F900F900F900F90CF
:101DB000CF91DF910895DF93CF93CDB7DEB72A9708
:101DC0000FB6F894DEBF0FBECDBF9C838B837E839E
:101DD0006D8358874F831A82198223C089819A8123
:101DE0009C01220F331F8B819C81FC01E20FF31FAA
:101DF0004081518189819A819C01220F331F8D81FD
:101E00009E81FC01E20FF31F8081918148175907E1
:101E100019F01A86198610C089819A8101969A83D1
:101E2000898329813A818F81988528173907B4F2EF
:101E300081E090E09A87898789859A852A960FB6EE
:101E4000F894DEBF0FBECDBFCF91DF910895DF9331
:101E5000CF9300D00F92CDB7DEB70E94FF0A0E9449
:101E6000FC070E94270889838981282F30E03B8363
:101E70002A838A819B818830910509F47DC02A815B
:101E80003B81293031055CF58A819B818430910545
:101E900009F462C02A813B81253031059CF48A8196
:101EA0009B818230910509F44FC02A813B81233008
:101EB00031050CF04DC08A819B818130910509F478
:101EC0003FC0CFCF2A813B812630310509F44CC079
:101ED0008A819B81873091050CF04AC041C02A81DC
:101EE0003B812C30310509F45DC08A819B818D30A6
:101EF00091056CF42A813B812A30310509F444C0F4
:101F00008A819B818B3091050CF045C039C02A81B4
:101F10003B812E30310509F453C08A819B818E307C
:101F200091050CF446C02A813B812F30310509F41C
:101F30004EC08A819B818031910509F44FC091CFB9
:101F400081E30E94F4098DCF82E30E94F40989CFD6
:101F500083E30E94F40985CF84E30E94F40981CFD2
:101F600085E30E94F4097DCF86E30E94F40979CFCE
:101F700087E30E94F40975CF88E30E94F40971CFCA
:101F800089E30E94F4096DCF81E30E94F40980E3A4
:101F90000E94F40966CF81E30E94F40981E30E9464
:101FA000F4095FCF81E30E94F40982E30E94F409FF
:101FB00058CF81E30E94F40983E30E94F40951CFD2
:101FC00081E30E94F40984E30E94F4094ACF81E38B
:101FD0000E94F40985E30E94F40943CF81E30E9443
:101FE000F40986E30E94F4093CCF2F923F924F926E
:101FF0005F926F927F928F929F92AF92BF92CF9299
:10200000DF92EF92FF920F931F93CF93DF93CDB7A1
:10201000DEB7CA1BDB0B0FB6F894DEBF0FBECDBF19
:1020200009942A88398848885F846E847D848C84EA
:102030009B84AA84B984C884DF80EE80FD800C81F3
:102040001B81AA81B981CE0FD11D0FB6F894DEBFD6
:0C2050000FBECDBFED010895F894FFCF46
:10205C0000000000000000000105090D02060A0E38
:08206C0003070B0F04080C1020
:00000001FF
