:100000000C942A000C943F000C943F000C943F0089
:100010000C943F000C943F000C943F000C943F0064
:100020000C943F000C943F000C943F000C943F0054
:100030000C943F000C943F000C943F000C943F0044
:100040000C943F000C943F000C943F000C943F0034
:100050000C943F0011241FBECFE5D8E0DEBFCDBF1A
:1000600010E0A0E6B0E0E4EFF8E202C005900D92E7
:10007000A836B107D9F70E94FB130C9478140C949E
:100080000000EF92FF920F931F937B018C0120E001
:1000900030E040E05FE40E94410388238CF0C80117
:1000A000B70120E030E040E05FE40E94B9010E9427
:1000B000A1039B01AC01205030404040504806C095
:1000C000C801B7010E94A1039B01AC01B901CA019B
:1000D0001F910F91FF90EF900895A0E0B0E0E3E74B
:1000E000F0E00C944114DC012B01FA019C91923058
:1000F00008F439C1EB018881823008F433C19430AF
:1001000069F4843009F02FC111969C91119789816F
:10011000981709F428C1A0E6B0E025C1843009F49D
:1001200021C18230A9F4923009F01DC19A01AD01BC
:1001300088E0EA010990AE01E90109929E0181502F
:10014000C1F7E201898111969C918923818308C1BD
:10015000923009F407C112962D903C901397EB0151
:100160008A819B811496AD90BD90CD90DC901797BD
:10017000EC80FD800E811F819101281B390BB90194
:1001800037FF04C066277727621B730B6032710547
:100190000CF061C0121613066CF537014801062EEB
:1001A00004C096948794779467940A94D2F721E0D8
:1001B00030E040E050E004C0220F331F441F551FC1
:1001C0006A95D2F721503040404050402E213F21C7
:1001D00040235123211531054105510521F021E02E
:1001E00030E040E050E079018A01E628F72808294C
:1001F00019293CC0232BD1F1260E371E35014601AB
:10020000062E04C096948794779467940A94D2F744
:1002100021E030E040E050E004C0220F331F441FD3
:10022000551F6A95D2F721503040404050402A2156
:100230003B214C215D21211531054105510521F05E
:1002400021E030E040E050E059016A01A628B728DB
:10025000C828D9280BC0821593052CF01C01AA24AC
:10026000BB24650103C0EE24FF24870111969C91F5
:10027000D20111968C91981709F445C0992339F051
:10028000A80197012A193B094C095D0906C0A6017E
:1002900095012E193F09400B510B57FD08C01182E3
:1002A0003382228224833583468357831DC081E0B5
:1002B00081833382228288279927DC01821B930B5A
:1002C000A40BB50B84839583A683B7830DC0220F3F
:1002D000331F441F551F24833583468357838281F0
:1002E000938101979383828324813581468157814D
:1002F000DA01C9010197A109B1098F5F9F4FAF4F83
:10030000BF4328F30BC0918333822282EA0CFB1C8B
:100310000C1D1D1DE482F5820683178383E0808314
:10032000248135814681578157FF1AC0C901AA2708
:1003300097FDA095BA2F81709070A070B0705695FF
:10034000479537952795822B932BA42BB52B848328
:100350009583A683B7838281938101969383828359
:10036000DF0101C0D201CD01CDB7DEB7E2E10C94CF
:100370005D14A0E2B0E0EFEBF1E00C944D14698362
:100380007A838B839C832D833E834F835887E9E058
:10039000EE2EF12CEC0EFD1ECE010196B7010E944F
:1003A000CA048E010F5E1F4FCE010596B8010E9450
:1003B000CA048A8991E089278A8BC701B801AE01F6
:1003C000475E5F4F0E946D000E94F503A096E6E035
:1003D0000C946914A0E2B0E0E0EFF1E00C944D144D
:1003E00069837A838B839C832D833E834F835887D5
:1003F000F9E0EF2EF12CEC0EFD1ECE010196B701B7
:100400000E94CA048E010F5E1F4FCE010596B801EF
:100410000E94CA04C701B801AE01475E5F4F0E9447
:100420006D000E94F503A096E6E00C946914A0E22A
:10043000B0E0EDE1F2E00C94411469837A838B83A0
:100440009C832D833E834F835887CE010196BE0146
:10045000675F7F4F0E94CA04CE010596BE016F5EA2
:100460007F4F0E94CA049985923088F08989823032
:10047000C8F0943019F4823051F404C0843029F467
:10048000923081F480E690E0C6C0923049F420E0DA
:100490009A858A89981321E02A87CE010996BBC0E4
:1004A000823049F420E09A858A89981321E02A8BCA
:1004B000CE014196B0C02D843E844F8458886D880B
:1004C0007E888F88988CEE24FF248701AA24BB2481
:1004D000650140E050E060E070E0E0E0F0E0C10184
:1004E00081709070892BE9F0E60CF71C081D191D2E
:1004F0009A01AB012A0D3B1D4C1D5D1D80E090E073
:10050000A0E0B0E0E614F7040805190520F481E046
:1005100090E0A0E0B0E0BA01A901480F591F6A1F9E
:100520007B1FAA0CBB1CCC1CDD1C97FE08C081E005
:1005300090E0A0E0B0E0A82AB92ACA2ADB2A3196C6
:10054000E032F10549F0660C771C881C991C569422
:10055000479437942794C3CFFA85EA892B893C893D
:100560008B859C85280F391F2E5F3F4F17C0CA010E
:1005700081709070892B61F016950795F794E79438
:1005800080E090E0A0E0B0E8E82AF92A0A2B1B2BD3
:1005900076956795579547952F5F3F4F77FDE7CF46
:1005A0000CC0440F551F661F771F17FD4160EE0CEE
:1005B000FF1C001F111F21503040403090E05907B0
:1005C00090E0690790E4790760F32B8F3C8FDB01A3
:1005D000CA018F779070A070B07080349105A1052A
:1005E000B10561F447FD0AC0E114F10401051105EC
:1005F00029F0405C5F4F6F4F7F4F40781A8EFE1797
:1006000011F081E08A8F4D8F5E8F6F8F78A383E02A
:10061000898FCE0149960E94F503A096E2E10C94E1
:100620005D14A8E1B0E0E7E1F3E00C944D146983B8
:100630007A838B839C832D833E834F83588789E005
:10064000E82EF12CEC0EFD1ECE010196B7010E94A2
:10065000CA048E010F5E1F4FCE010596B8010E949D
:10066000CA048985823040F08989823028F0C70128
:10067000B8010E94420501C08FEF6896E6E00C9435
:100680006914A8E1B0E0E7E4F3E00C944D14698349
:100690007A838B839C832D833E834F83588789E0A5
:1006A000E82EF12CEC0EFD1ECE010196B7010E9442
:1006B000CA048E010F5E1F4FCE010596B8010E943D
:1006C000CA048985823040F08989823028F0C701C8
:1006D000B8010E94420501C08FEF6896E6E00C94D5
:1006E0006914A8E1B0E0E7E7F3E00C944D146983E6
:1006F0007A838B839C832D833E834F83588789E045
:10070000E82EF12CEC0EFD1ECE010196B7010E94E1
:10071000CA048E010F5E1F4FCE010596B8010E94DC
:10072000CA048985823040F08989823028F0C70167
:10073000B8010E94420501C081E06896E6E00C9491
:100740006914ACE0B0E0E7EAF3E00C94511469837B
:100750007A838B839C83CE010196BE016B5F7F4FB2
:100760000E94CA048D81823061F1823050F1843060
:1007700021F48E81882351F12EC02F81388537FDD9
:1007800020C06E812F3131051CF06623F9F023C0A3
:100790008EE190E0821B930B29853A854B855C8521
:1007A00004C056954795379527958A95D2F76623C5
:1007B000B1F050954095309521953F4F4F4F5F4F89
:1007C0000EC020E030E040E050E009C02FEF3FEFE6
:1007D0004FEF5FE704C020E030E040E050E8B901AF
:1007E000CA012C96E2E00C946D14DF92EF92FF9216
:1007F0000F931F93FC01E480F58006811781D1805F
:100800008081823048F480E090E0A0E1B0E0E82A06
:10081000F92A0A2B1B2BA5C0843009F49FC0823013
:1008200021F4EE24FF24870105C0E114F104010541
:10083000110519F4E0E0F0E096C0628173819FEF4A
:10084000623879070CF05BC022E83FEF261B370BBC
:100850002A3131052CF020E030E040E050E02AC0A1
:10086000B801A701022E04C0769567955795479564
:100870000A94D2F781E090E0A0E0B0E004C0880FD5
:10088000991FAA1FBB1F2A95D2F70197A109B10989
:100890008E219F21A023B1230097A105B10521F04E
:1008A00081E090E0A0E0B0E09A01AB01282B392B69
:1008B0004A2B5B2BDA01C9018F779070A070B07062
:1008C00080349105A105B10539F427FF09C0205CEA
:1008D0003F4F4F4F5F4F04C0215C3F4F4F4F5F4F23
:1008E000E0E0F0E02030A0E03A07A0E04A07A0E412
:1008F0005A0710F0E1E0F0E079018A0127C0603882
:10090000710564F5FB01E158FF4FD801C7018F77EE
:100910009070A070B07080349105A105B10539F4D4
:10092000E7FE0DC080E490E0A0E0B0E004C08FE3FB
:1009300090E0A0E0B0E0E80EF91E0A1F1B1F17FFB1
:1009400005C016950795F794E794319687E01695BC
:100950000795F794E7948A95D1F705C0EE24FF2414
:100960008701EFEFF0E06E2F679566276795902F70
:100970009F77D794DD24D7948E2F8695492F462BC9
:10098000582F5D29B701CA011F910F91FF90EF9079
:10099000DF900895FC01DB01408151812281622FAB
:1009A0006F7770E0221F2227221F9381892F880FE3
:1009B000822B282F30E0991F9927991F11969C931D
:1009C000119721153105A9F54115510561057105ED
:1009D00011F482E037C082E89FEF13969C938E93C8
:1009E00012979A01AB0167E0220F331F441F551F76
:1009F0006A95D1F783E08C930DC0220F331F441FFB
:100A0000551F12968D919C911397019713969C9365
:100A10008E931297203080E0380780E0480780E40A
:100A2000580758F314962D933D934D935C93179765
:100A300008952F3F310579F4411551056105710580
:100A400019F484E08C93089564FF03C081E08C93D3
:100A500012C01C9210C02F57304013963C932E9317
:100A6000129783E08C9387E0440F551F661F771F12
:100A70008A95D1F7706414964D935D936D937C9332
:100A8000179708951F93DC01FB019C91923008F4A5
:100A900047C08081823008F443C0943051F41196ED
:100AA0001C91843099F58181682F70E0611B710978
:100AB0003FC0843021F0923031F48230B9F181812D
:100AC000882389F12DC011961C9111978230F1F085
:100AD00081811817D9F412962D913C911397828138
:100AE00093818217930794F028173907BCF0149666
:100AF0008D919D910D90BC91A02D248135814681D1
:100B00005781281739074A075B0718F4112341F06A
:100B10000AC082179307A407B50740F4112319F000
:100B200061E070E005C06FEF7FEF02C060E070E051
:100B3000CB011F910895DF93CF93CDB7DEB72C97EC
:100B40000FB6F894DEBF0FBECDBF69837A838B8367
:100B50009C838981282F30E03C872B878B859C855F
:100B600081309105C1F02B853C852230310511F192
:100B70008B859C85009761F5A7E2B0E0E7E2F0E0A5
:100B800080818F778C93A7E2B0E0E7E2F0E080818C
:100B90008F7B8C931DC0A7E2B0E0E7E2F0E080819C
:100BA0008F778C93A7E2B0E0E7E2F0E08081806489
:100BB0008C930EC0A7E2B0E0E7E2F0E080818068AD
:100BC0008C93A7E2B0E0E7E2F0E0808180648C9350
:100BD0008A81282F30E03A87298789859A8500976E
:100BE00069F029853A852130310579F4A7E2B0E032
:100BF000E7E2F0E0808180628C9307C0A7E2B0E07A
:100C0000E7E2F0E080818F7D8C938B81282F30E0AC
:100C100038872F838F8198858E30910509F4ADC276
:100C20002F8138852F3031050CF054C08F81988585
:100C30008630910509F481C12F813885273031052F
:100C400024F58F8198858230910509F4E6C02F81C3
:100C500038852330310564F48F819885009709F435
:100C600094C02F8138852130310509F4B2C0C4C445
:100C70008F8198858430910509F417C12F813885BB
:100C8000253031050CF035C1ECC08F8198858A3054
:100C9000910509F4E2C12F8138852B3031056CF4C0
:100CA0008F8198858830910509F48FC12F8138850F
:100CB000293031050CF0ADC164C18F8198858C302D
:100CC000910509F412C22F8138852D3031050CF0C1
:100CD00030C2E7C18F8198858631910509F46DC3D3
:100CE0002F813885273131052CF58F819885823108
:100CF000910509F4D2C22F813885233131056CF476
:100D00008F8198858031910509F47FC22F813885C4
:100D1000213131050CF09DC254C28F8198858431F8
:100D2000910509F402C32F813885253131050CF076
:100D300020C3D7C28F8198858A31910509F4CDC32C
:100D40002F8138852B3131056CF48F81988588315E
:100D5000910509F47AC32F813885293131050CF0CA
:100D600098C34FC38F8198858C31910509F4FDC3D9
:100D70002F8138852C3131050CF4D3C38F819885B0
:100D80008D31910509F415C437C4A7E2B0E0E7E25C
:100D9000F0E080818F7E8C93A7E2B0E0E7E2F0E0A4
:100DA0008081877F8C93A7E2B0E0E7E2F0E080816A
:100DB0008B7F8C93A7E2B0E0E7E2F0E080818D7F4B
:100DC0008C93A7E2B0E0E7E2F0E080818E7F8C9325
:100DD00013C4A7E2B0E0E7E2F0E080818F7E8C935D
:100DE000A7E2B0E0E7E2F0E08081877F8C93A7E2A2
:100DF000B0E0E7E2F0E080818B7F8C93A7E2B0E087
:100E0000E7E2F0E080818D7F8C93A7E2B0E0E7E23B
:100E1000F0E0808181608C93EFC3A7E2B0E0E7E26D
:100E2000F0E080818F7E8C93A7E2B0E0E7E2F0E013
:100E30008081877F8C93A7E2B0E0E7E2F0E08081D9
:100E40008B7F8C93A7E2B0E0E7E2F0E080818260E4
:100E50008C93A7E2B0E0E7E2F0E080818E7F8C9394
:100E6000CBC3A7E2B0E0E7E2F0E080818F7E8C9315
:100E7000A7E2B0E0E7E2F0E08081877F8C93A7E211
:100E8000B0E0E7E2F0E080818B7F8C93A7E2B0E0F6
:100E9000E7E2F0E0808182608C93A7E2B0E0E7E2D5
:100EA000F0E0808181608C93A7C3A7E2B0E0E7E225
:100EB000F0E080818F7E8C93A7E2B0E0E7E2F0E083
:100EC0008081877F8C93A7E2B0E0E7E2F0E0808149
:100ED00084608C93A7E2B0E0E7E2F0E080818D7F50
:100EE0008C93A7E2B0E0E7E2F0E080818E7F8C9304
:100EF00083C3A7E2B0E0E7E2F0E080818F7E8C93CD
:100F0000A7E2B0E0E7E2F0E08081877F8C93A7E280
:100F1000B0E0E7E2F0E0808184608C93A7E2B0E08B
:100F2000E7E2F0E080818D7F8C93A7E2B0E0E7E21A
:100F3000F0E0808181608C935FC3A7E2B0E0E7E2DC
:100F4000F0E080818F7E8C93A7E2B0E0E7E2F0E0F2
:100F50008081877F8C93A7E2B0E0E7E2F0E08081B8
:100F600084608C93A7E2B0E0E7E2F0E080818260E9
:100F70008C93A7E2B0E0E7E2F0E080818E7F8C9373
:100F80003BC3A7E2B0E0E7E2F0E080818F7E8C9384
:100F9000A7E2B0E0E7E2F0E08081877F8C93A7E2F0
:100FA000B0E0E7E2F0E0808184608C93A7E2B0E0FB
:100FB000E7E2F0E0808182608C93A7E2B0E0E7E2B4
:100FC000F0E0808181608C9317C3A7E2B0E0E7E294
:100FD000F0E080818F7E8C93A7E2B0E0E7E2F0E062
:100FE000808188608C93A7E2B0E0E7E2F0E0808146
:100FF0008B7F8C93A7E2B0E0E7E2F0E080818D7F09
:101000008C93A7E2B0E0E7E2F0E080818E7F8C93E2
:10101000F3C2A7E2B0E0E7E2F0E080818F7E8C933C
:10102000A7E2B0E0E7E2F0E0808188608C93A7E27D
:10103000B0E0E7E2F0E080818B7F8C93A7E2B0E044
:10104000E7E2F0E080818D7F8C93A7E2B0E0E7E2F9
:10105000F0E0808181608C93CFC2A7E2B0E0E7E24C
:10106000F0E080818F7E8C93A7E2B0E0E7E2F0E0D1
:10107000808188608C93A7E2B0E0E7E2F0E08081B5
:101080008B7F8C93A7E2B0E0E7E2F0E080818260A2
:101090008C93A7E2B0E0E7E2F0E080818E7F8C9352
:1010A000ABC2A7E2B0E0E7E2F0E080818F7E8C93F4
:1010B000A7E2B0E0E7E2F0E0808188608C93A7E2ED
:1010C000B0E0E7E2F0E080818B7F8C93A7E2B0E0B4
:1010D000E7E2F0E0808182608C93A7E2B0E0E7E293
:1010E000F0E0808181608C9387C2A7E2B0E0E7E204
:1010F000F0E080818F7E8C93A7E2B0E0E7E2F0E041
:10110000808188608C93A7E2B0E0E7E2F0E0808124
:1011100084608C93A7E2B0E0E7E2F0E080818D7F0D
:101120008C93A7E2B0E0E7E2F0E080818E7F8C93C1
:1011300063C2A7E2B0E0E7E2F0E080818F7E8C93AB
:10114000A7E2B0E0E7E2F0E0808188608C93A7E25C
:10115000B0E0E7E2F0E0808184608C93A7E2B0E049
:10116000E7E2F0E080818D7F8C93A7E2B0E0E7E2D8
:10117000F0E0808181608C933FC2A7E2B0E0E7E2BB
:10118000F0E080818F7E8C93A7E2B0E0E7E2F0E0B0
:10119000808188608C93A7E2B0E0E7E2F0E0808194
:1011A00084608C93A7E2B0E0E7E2F0E080818260A7
:1011B0008C93A7E2B0E0E7E2F0E080818E7F8C9331
:1011C0001BC2A7E2B0E0E7E2F0E080818F7E8C9363
:1011D000A7E2B0E0E7E2F0E0808188608C93A7E2CC
:1011E000B0E0E7E2F0E0808184608C93A7E2B0E0B9
:1011F000E7E2F0E0808182608C93A7E2B0E0E7E272
:10120000F0E0808181608C93F7C1A7E2B0E0E7E273
:10121000F0E0808180618C93A7E2B0E0E7E2F0E04B
:101220008081877F8C93A7E2B0E0E7E2F0E08081E5
:101230008B7F8C93A7E2B0E0E7E2F0E080818D7FC6
:101240008C93A7E2B0E0E7E2F0E080818E7F8C93A0
:10125000D3C1A7E2B0E0E7E2F0E0808180618C9347
:10126000A7E2B0E0E7E2F0E08081877F8C93A7E21D
:10127000B0E0E7E2F0E080818B7F8C93A7E2B0E002
:10128000E7E2F0E080818D7F8C93A7E2B0E0E7E2B7
:10129000F0E0808181608C93AFC1A7E2B0E0E7E22B
:1012A000F0E0808180618C93A7E2B0E0E7E2F0E0BB
:1012B0008081877F8C93A7E2B0E0E7E2F0E0808155
:1012C0008B7F8C93A7E2B0E0E7E2F0E08081826060
:1012D0008C93A7E2B0E0E7E2F0E080818E7F8C9310
:1012E0008BC1A7E2B0E0E7E2F0E0808180618C93FF
:1012F000A7E2B0E0E7E2F0E08081877F8C93A7E28D
:10130000B0E0E7E2F0E080818B7F8C93A7E2B0E071
:10131000E7E2F0E0808182608C93A7E2B0E0E7E250
:10132000F0E0808181608C9367C1A7E2B0E0E7E2E2
:10133000F0E0808180618C93A7E2B0E0E7E2F0E02A
:101340008081877F8C93A7E2B0E0E7E2F0E08081C4
:1013500084608C93A7E2B0E0E7E2F0E080818D7FCB
:101360008C93A7E2B0E0E7E2F0E080818E7F8C937F
:1013700043C1A7E2B0E0E7E2F0E0808180618C93B6
:10138000A7E2B0E0E7E2F0E08081877F8C93A7E2FC
:10139000B0E0E7E2F0E0808184608C93A7E2B0E007
:1013A000E7E2F0E080818D7F8C93A7E2B0E0E7E296
:1013B000F0E0808181608C931FC1A7E2B0E0E7E29A
:1013C000F0E0808180618C93A7E2B0E0E7E2F0E09A
:1013D0008081877F8C93A7E2B0E0E7E2F0E0808134
:1013E00084608C93A7E2B0E0E7E2F0E08081826065
:1013F0008C93A7E2B0E0E7E2F0E080818E7F8C93EF
:10140000FBC0A7E2B0E0E7E2F0E0808180618C936E
:10141000A7E2B0E0E7E2F0E08081877F8C93A7E26B
:10142000B0E0E7E2F0E0808184608C93A7E2B0E076
:10143000E7E2F0E0808182608C93A7E2B0E0E7E22F
:10144000F0E0808181608C93D7C0A7E2B0E0E7E252
:10145000F0E0808180618C93A7E2B0E0E7E2F0E009
:10146000808188608C93A7E2B0E0E7E2F0E08081C1
:101470008B7F8C93A7E2B0E0E7E2F0E080818D7F84
:101480008C93A7E2B0E0E7E2F0E080818E7F8C935E
:10149000B3C0A7E2B0E0E7E2F0E0808180618C9326
:1014A000A7E2B0E0E7E2F0E0808188608C93A7E2F9
:1014B000B0E0E7E2F0E080818B7F8C93A7E2B0E0C0
:1014C000E7E2F0E080818D7F8C93A7E2B0E0E7E275
:1014D000F0E0808181608C938FC0A7E2B0E0E7E20A
:1014E000F0E0808180618C93A7E2B0E0E7E2F0E079
:1014F000808188608C93A7E2B0E0E7E2F0E0808131
:101500008B7F8C93A7E2B0E0E7E2F0E0808182601D
:101510008C93A7E2B0E0E7E2F0E080818E7F8C93CD
:101520006BC0A7E2B0E0E7E2F0E0808180618C93DD
:10153000A7E2B0E0E7E2F0E0808188608C93A7E268
:10154000B0E0E7E2F0E080818B7F8C93A7E2B0E02F
:10155000E7E2F0E0808182608C93A7E2B0E0E7E20E
:10156000F0E0808181608C9347C0A7E2B0E0E7E2C1
:10157000F0E0808180618C93A7E2B0E0E7E2F0E0E8
:10158000808188608C93A7E2B0E0E7E2F0E08081A0
:1015900084608C93A7E2B0E0E7E2F0E080818D7F89
:1015A0008C93A7E2B0E0E7E2F0E080818E7F8C933D
:1015B00023C0A7E2B0E0E7E2F0E0808180618C9395
:1015C000A7E2B0E0E7E2F0E0808188608C93A7E2D8
:1015D000B0E0E7E2F0E0808184608C93A7E2B0E0C5
:1015E000E7E2F0E080818D7F8C93A7E2B0E0E7E254
:1015F000F0E0808181608C938C81282F30E03E83E5
:101600002D838D819E818330910509F46AC02D81DF
:101610003E812430310584F48D819E818130910595
:10162000A1F12D813E81223031050CF044C08D8125
:101630009E810097A1F0ACC02D813E8125303105FF
:1016400009F47BC08D819E81853091050CF45FC0CB
:101650002D813E812630310509F485C099C0A6E26E
:10166000B0E0E6E2F0E080818B7F8C93A6E2B0E010
:10167000E6E2F0E080818D7F8C93A6E2B0E0E6E2C6
:10168000F0E080818E7F8C9383C0A6E2B0E0E6E23A
:10169000F0E080818B7F8C93A6E2B0E0E6E2F0E0A0
:1016A000808182608C93A6E2B0E0E6E2F0E0808187
:1016B0008E7F8C936DC0A6E2B0E0E6E2F0E0808120
:1016C0008B7F8C93A6E2B0E0E6E2F0E0808182605E
:1016D0008C93A6E2B0E0E6E2F0E0808181608C933A
:1016E00057C0A6E2B0E0E6E2F0E0808184608C932F
:1016F000A6E2B0E0E6E2F0E080818D7F8C93A6E286
:10170000B0E0E6E2F0E080818E7F8C9341C0A6E2FB
:10171000B0E0E6E2F0E0808184608C93A6E2B0E085
:10172000E6E2F0E080818D7F8C93A6E2B0E0E6E215
:10173000F0E0808181608C932BC0A6E2B0E0E6E20D
:10174000F0E0808184608C93A6E2B0E0E6E2F0E015
:10175000808182608C93A6E2B0E0E6E2F0E08081D6
:101760008E7F8C9315C0A6E2B0E0E6E2F0E08081C7
:1017700084608C93A6E2B0E0E6E2F0E080818260D3
:101780008C93A6E2B0E0E6E2F0E0808181608C9389
:10179000A6E2B0E0E6E2F0E0808180688C932C96CF
:1017A0000FB6F894DEBF0FBECDBFCF91DF91089585
:1017B000DF93CF9300D0CDB7DEB7A6E2B0E0E6E28C
:1017C000F0E0808180648C93E6E2F0E08081829595
:1017D0008F70882F90E0817090700097A9F31A8223
:1017E0001982E4E2F0E08081882F90E09A83898377
:1017F000E5E2F0E08081882F90E0982F88279C0117
:1018000089819A81822B932B9A838983A6E2B0E007
:10181000E6E2F0E0808180618C9389819A810F906B
:101820000F90CF91DF910895DF93CF9300D00F9267
:10183000CDB7DEB78A836B838A8186958695869538
:1018400089838981882309F066C08B818823C1F44C
:10185000AAE3B0E0EAE3F0E08081482F8A81882F94
:1018600090E09C012770307081E090E0022E02C071
:10187000880F991F0A94E2F7809584238C9387C17F
:101880008B818130B9F4AAE3B0E0EAE3F0E0808133
:10189000482F8A81882F90E09C012770307081E06A
:1018A00090E0022E02C0880F991F0A94E2F7842B61
:1018B0008C936DC18B81823009F069C1AAE3B0E0DD
:1018C000EAE3F0E08081482F8A81882F90E09C0134
:1018D0002770307081E090E002C0880F991F2A9530
:1018E000E2F7809584238C93ABE3B0E0EBE3F0E088
:1018F0008081482F8A81882F90E09C01277030706A
:1019000081E090E0022E02C0880F991F0A94E2F74E
:10191000842B8C933CC18981813009F066C08B8116
:101920008823C1F4A7E3B0E0E7E3F0E08081482F2B
:101930008A81882F90E09C012770307081E090E0D0
:10194000022E02C0880F991F0A94E2F78095842323
:101950008C931DC18B818130B9F4A7E3B0E0E7E33C
:10196000F0E08081482F8A81882F90E09C012770C9
:10197000307081E090E0022E02C0880F991F0A9417
:10198000E2F7842B8C9303C18B81823009F0FFC076
:10199000A7E3B0E0E7E3F0E08081482F8A81882F59
:1019A00090E09C012770307081E090E002C0880FC9
:1019B000991F2A95E2F7809584238C93A8E3B0E0E1
:1019C000E8E3F0E08081482F8A81882F90E09C0135
:1019D0002770307081E090E0022E02C0880F991FBE
:1019E0000A94E2F7842B8C93D2C08981823009F06B
:1019F00066C08B818823C1F4A4E3B0E0E4E3F0E0A7
:101A00008081482F8A81882F90E09C012770307058
:101A100081E090E0022E02C0880F991F0A94E2F73D
:101A2000809584238C93B3C08B818130B9F4A4E377
:101A3000B0E0E4E3F0E08081482F8A81882F90E0D5
:101A40009C012770307081E090E0022E02C0880F68
:101A5000991F0A94E2F7842B8C9399C08B81823072
:101A600009F095C0A4E3B0E0E4E3F0E08081482F02
:101A70008A81882F90E09C012770307081E090E08F
:101A800002C0880F991F2A95E2F7809584238C93D2
:101A9000A5E3B0E0E5E3F0E08081482F8A81882F5C
:101AA00090E09C012770307081E090E0022E02C02F
:101AB000880F991F0A94E2F7842B8C9368C0898160
:101AC000833009F064C08B818823C1F4A1E3B0E0C6
:101AD000E1E3F0E08081482F8A81882F90E09C012B
:101AE0002770307081E090E0022E02C0880F991FAD
:101AF0000A94E2F7809584238C9349C08B818130CE
:101B0000B9F4A1E3B0E0E1E3F0E08081482F8A81FD
:101B1000882F90E09C012770307081E090E0022EC9
:101B200002C0880F991F0A94E2F7842B8C932FC070
:101B30008B81823061F5A1E3B0E0E1E3F0E08081E8
:101B4000482F8A81882F90E09C012770307081E0B7
:101B500090E002C0880F991F2A95E2F780958423B0
:101B60008C93A2E3B0E0E2E3F0E08081482F8A8129
:101B7000882F90E09C012770307081E090E0022E69
:101B800002C0880F991F0A94E2F7842B8C930F9060
:101B90000F900F90CF91DF910895DF93CF9300D0F6
:101BA0000F92CDB7DEB78A836B838A81869586953F
:101BB0008695898389818823B1F58B818823C1F437
:101BC000ABE3B0E0EBE3F0E08081482F8A81882F1F
:101BD00090E09C012770307081E090E0022E02C0FE
:101BE000880F991F0A94E2F7809584238C93C4C0D0
:101BF0008B81813009F0C0C0ABE3B0E0EBE3F0E0F3
:101C00008081482F8A81882F90E09C012770307056
:101C100081E090E0022E02C0880F991F0A94E2F73B
:101C2000842B8C93A9C089818130B1F58B81882365
:101C3000C1F4A8E3B0E0E8E3F0E08081482F8A81B6
:101C4000882F90E09C012770307081E090E0022E98
:101C500002C0880F991F0A94E2F7809584238C9321
:101C60008BC08B81813009F087C0A8E3B0E0E8E346
:101C7000F0E08081482F8A81882F90E09C012770B6
:101C8000307081E090E0022E02C0880F991F0A9404
:101C9000E2F7842B8C9370C089818230B1F58B81FF
:101CA0008823C1F4A5E3B0E0E5E3F0E08081482FAC
:101CB0008A81882F90E09C012770307081E090E04D
:101CC000022E02C0880F991F0A94E2F780958423A0
:101CD0008C9352C08B81813009F04EC0A5E3B0E0F7
:101CE000E5E3F0E08081482F8A81882F90E09C0115
:101CF0002770307081E090E0022E02C0880F991F9B
:101D00000A94E2F7842B8C9337C089818330A1F544
:101D10008B818823C1F4A2E3B0E0E2E3F0E08081AC
:101D2000482F8A81882F90E09C012770307081E0D5
:101D300090E0022E02C0880F991F0A94E2F7809566
:101D400084238C9319C08B818130B1F4A2E3B0E07D
:101D5000E2E3F0E08081482F8A81882F90E09C01A7
:101D60002770307081E090E0022E02C0880F991F2A
:101D70000A94E2F7842B8C930F900F900F90CF91E1
:101D8000DF910895DF93CF9300D000D0CDB7DEB7B9
:101D90008A838A8186958695869589838981882319
:101DA000A9F4E9E3F0E08081282F30E08A81882FD0
:101DB00090E087709070A90102C0559547958A956B
:101DC000E2F7CA01582F51705B8349C08981813085
:101DD000A9F4E6E3F0E08081282F30E08A81882FA3
:101DE00090E087709070A90102C0559547958A953B
:101DF000E2F7CA01582F51705B8331C0898182306C
:101E0000A9F4E3E3F0E08081282F30E08A81882F75
:101E100090E087709070A90102C0559547958A950A
:101E2000E2F7CA01582F51705B8319C08981833052
:101E3000A9F4E0E3F0E08081282F30E08A81882F48
:101E400090E087709070A90102C0559547958A95DA
:101E5000E2F7CA01582F51705B8301C002C08B8129
:101E60008C838C810F900F900F900F90CF91DF910A
:101E70000895DF93CF93CDB7DEB72F970FB6F894C1
:101E8000DEBF0FBECDBF8F8780E161E00E94140CE2
:101E900080E160E00E94CD0D81E161E00E94140CC0
:101EA00081E160E00E94CD0D88E161E00E94140CA8
:101EB0008F85982F917088E1692F0E94CD0D89E15F
:101EC00061E00E94140C8F858695982F917089E1AE
:101ED000692F0E94CD0D8AE161E00E94140C8F856C
:101EE00086958695982F91708AE1692F0E94CD0D75
:101EF0008BE161E00E94140C8F858695869586950E
:101F0000982F91708BE1692F0E94CD0D8CE161E0DB
:101F10000E94140C8F8582958F70982F91708CE1A0
:101F2000692F0E94CD0D8DE161E00E94140C8F8518
:101F3000829586958770982F91708DE1692F0E9408
:101F4000CD0D8EE161E00E94140C8F8582958695FF
:101F500086958370982F91708EE1692F0E94CD0D28
:101F60008FE161E00E94140C8F85982F991F9927AB
:101F7000991F8FE1692F0E94CD0D82E161E00E94DF
:101F8000140C82E161E00E94CD0D80E090E0A0E0C1
:101F9000B0E48B879C87AD87BE876B857C858D85FC
:101FA0009E8520E030E04AEF54E40E941702DC01F5
:101FB000CB018F839887A987BA876F8178858985B8
:101FC0009A8520E030E040E85FE30E9471038823B7
:101FD0002CF481E090E09E838D833FC06F817885F3
:101FE00089859A8520E03FEF4FE757E40E9411036F
:101FF00018164CF56B857C858D859E8520E030E03C
:1020000040E251E40E941702DC01CB01BC01CD018A
:102010000E944100DC01CB019E838D830FC088ECC0
:1020200090E09C838B838B819C810197F1F79C834B
:102030008B838D819E8101979E838D838D819E816F
:10204000009769F714C06F81788589859A850E9409
:102050004100DC01CB019E838D838D819E819A831B
:10206000898389819A810197F1F79A83898382E133
:1020700060E00E94CD0D2F960FB6F894DEBF0FBE24
:10208000CDBFCF91DF910895DF93CF93CDB7DEB76A
:102090002F970FB6F894DEBF0FBECDBF8F8780E1BC
:1020A00061E00E94140C80E161E00E94CD0D81E1AD
:1020B00061E00E94140C81E160E00E94CD0D88E196
:1020C00061E00E94140C8F85982F917088E1692F30
:1020D0000E94CD0D89E161E00E94140C8F858695E8
:1020E000982F917089E1692F0E94CD0D8AE161E0FE
:1020F0000E94140C8F8586958695982F91708AE1A1
:10210000692F0E94CD0D8BE161E00E94140C8F8538
:10211000869586958695982F91708BE1692F0E9400
:10212000CD0D8CE161E00E94140C8F8582958F703B
:10213000982F91708CE1692F0E94CD0D8DE161E0A7
:102140000E94140C8F85829586958770982F9170C8
:102150008DE1692F0E94CD0D8EE161E00E94140C8B
:102160008F858295869586958370982F91708EE1E4
:10217000692F0E94CD0D8FE161E00E94140C8F85C4
:10218000982F991F9927991F8FE1692F0E94CD0DD4
:1021900082E161E00E94140C82E161E00E94CD0DB9
:1021A00080E090E0A0E0B0E48B879C87AD87BE879D
:1021B0006B857C858D859E8520E030E04AEF54E478
:1021C0000E941702DC01CB018F839887A987BA8709
:1021D0006F81788589859A8520E030E040E85FE36B
:1021E0000E94710388232CF481E090E09E838D830C
:1021F0003FC06F81788589859A8520E03FEF4FE762
:1022000057E40E94110318164CF56B857C858D856B
:102210009E8520E030E040E251E40E941702DC019C
:10222000CB01BC01CD010E944100DC01CB019E83AA
:102230008D830FC088EC90E09C838B838B819C8185
:102240000197F1F79C838B838D819E8101979E83FB
:102250008D838D819E81009769F714C06F81788589
:1022600089859A850E944100DC01CB019E838D8384
:102270008D819E819A83898389819A810197F1F763
:102280009A83898382E160E00E94CD0D2F960FB67C
:10229000F894DEBF0FBECDBFCF91DF910895DF93DD
:1022A000CF93CDB7DEB7E8970FB6F894DEBF0FBE79
:1022B000CDBF80E090E0A8E4B2E48DAB9EABAFABC5
:1022C000B8AF6DA97EA98FA998AD20E030E04AEFA4
:1022D00054E40E941702DC01CB0189AB9AABABAB93
:1022E000BCAB69A97AA98BA99CA920E030E040E8A1
:1022F0005FE30E94710388232CF481E090E098ABA7
:102300008FA73FC069A97AA98BA99CA920E03FEFBC
:102310004FE757E40E94110318164CF56DA97EA9EA
:102320008FA998AD20E030E040E251E40E9417020E
:10233000DC01CB01BC01CD010E944100DC01CB01DD
:1023400098AB8FA70FC088EC90E09EA78DA78DA5B6
:102350009EA50197F1F79EA78DA78FA598A9019734
:1023600098AB8FA78FA598A9009769F714C069A9A2
:102370007AA98BA99CA90E944100DC01CB0198ABF2
:102380008FA78FA598A99CA78BA78BA59CA5019724
:10239000F1F79CA78BA788E30E94390F80E090E0BB
:1023A000A0E0B0E48FA398A7A9A7BAA76FA178A5CA
:1023B00089A59AA520E030E04AEF54E40E94170274
:1023C000DC01CB018BA39CA3ADA3BEA36BA17CA11D
:1023D0008DA19EA120E030E040E85FE30E94710300
:1023E00088232CF481E090E09AA389A33FC06BA1DD
:1023F0007CA18DA19EA120E03FEF4FE757E40E9412
:10240000110318164CF56FA178A589A59AA520E0AF
:1024100030E040E251E40E941702DC01CB01BC0134
:10242000CD010E944100DC01CB019AA389A30FC01A
:1024300088EC90E098A38F8F8F8D98A10197F1F78A
:1024400098A38F8F89A19AA101979AA389A389A1A3
:102450009AA1009769F714C06BA17CA18DA19EA1E0
:102460000E944100DC01CB019AA389A389A19AA112
:102470009E8F8D8F8D8D9E8D0197F1F79E8F8D8F05
:102480008CE00E94390F80E090E0A0E0B0E4898FFA
:102490009A8FAB8FBC8F698D7A8D8B8D9C8D20E050
:1024A00030E04AEF54E40E941702DC01CB018D8B2F
:1024B0009E8BAF8BB88F6D897E898F89988D20E038
:1024C00030E040E85FE30E94710388232CF481E050
:1024D00090E09C8B8B8B3FC06D897E898F89988D16
:1024E00020E03FEF4FE757E40E94110318164CF528
:1024F000698D7A8D8B8D9C8D20E030E040E251E437
:102500000E941702DC01CB01BC01CD010E944100F9
:10251000DC01CB019C8B8B8B0FC088EC90E09A8BFD
:10252000898B89899A890197F1F79A8B898B8B8995
:102530009C8901979C8B8B8B8B899C89009769F771
:1025400014C06D897E898F89988D0E944100DC01BD
:10255000CB019C8B8B8B8B899C89988B8F878F85EC
:1025600098890197F1F7988B8F8781E00E94390F46
:1025700080E090E0A0E0B0E48B879C87AD87BE87C9
:102580006B857C858D859E8520E030E04AEF54E4A4
:102590000E941702DC01CB018F839887A987BA8735
:1025A0006F81788589859A8520E030E040E85FE397
:1025B0000E94710388232CF481E090E09E838D8338
:1025C0003FC06F81788589859A8520E03FEF4FE78E
:1025D00057E40E94110318164CF56B857C858D8598
:1025E0009E8520E030E040E251E40E941702DC01C9
:1025F000CB01BC01CD010E944100DC01CB019E83D7
:102600008D830FC088EC90E09C838B838B819C81B1
:102610000197F1F79C838B838D819E8101979E8327
:102620008D838D819E81009769F714C06F817885B5
:1026300089859A850E944100DC01CB019E838D83B0
:102640008D819E819A83898389819A810197F1F78F
:102650009A838983E8960FB6F894DEBF0FBECDBF8C
:10266000CF91DF910895DF93CF93CDB7DEB72C974D
:102670000FB6F894DEBF0FBECDBF9A8789878985D4
:102680009A8598878F8389859A859E838D8381E03B
:1026900090E09C838B83198281E08A8311C08B81B7
:1026A0009C819C01220F331FC901880F991F880F3D
:1026B000991F820F931F9C838B838A818F5F8A83EC
:1026C0008A81853060F381E08A8336C08F81988566
:1026D0002B813C81B9010E942D14CB0198878F83F7
:1026E0008D819E812B813C81B9010E942D149E8396
:1026F0008D838B819C812AE030E0B9010E942D14EA
:10270000CB019C838B838F819885009741F48981CD
:10271000882329F48D819E8198878F830AC085E064
:1027200089838F81805D0E9444108D819E8198876E
:102730008F838A818F5F8A838A81863038F22C96D4
:102740000FB6F894DEBF0FBECDBFCF91DF910895D5
:10275000DF93CF9300D00F92CDB7DEB79A838983F2
:102760006B83ECE3F0E080818695882F90E08170A8
:1027700090708823B1F7EDE3F0E08B818083EEE386
:10278000F0E089818083ACE3B0E0ECE3F0E08081AD
:1027900084608C93ACE3B0E0ECE3F0E08081826095
:1027A0008C930F900F900F90CF91DF910895DF934E
:1027B000CF9300D0CDB7DEB79A838983ECE3F0E006
:1027C00080818695882F90E0817090708823B1F782
:1027D000EEE3F0E089818083ACE3B0E0ECE3F0E08D
:1027E000808181608C93EDE3F0E080810F900F9009
:1027F000CF91DF910895DF93CF9300D00F92CDB7A3
:10280000DEB70E944F111B8288E58A8380E061E079
:102810000E94140C81E061E00E94140C8B81882FCF
:1028200090E06A810E94A8138B81882F90E00E941B
:10283000D71389838981882F90E00E94331399816F
:102840008A81981729F480E061E00E94CD0D04C0D0
:1028500081E061E00E94CD0DFFCFAA1BBB1B51E1BF
:1028600007C0AA1FBB1FA617B70710F0A61BB70B00
:10287000881F991F5A95A9F780959095BC01CD01A5
:1028800008952F923F924F925F926F927F928F9214
:102890009F92AF92BF92CF92DF92EF92FF920F93EF
:1028A0001F93CF93DF93CDB7DEB7CA1BDB0B0FB6F9
:1028B000F894DEBF0FBECDBF09942A8839884888B6
:1028C0005F846E847D848C849B84AA84B984C8844C
:1028D000DF80EE80FD800C811B81AA81B981CE0F43
:1028E000D11D0FB6F894DEBF0FBECDBFED01089528
:0428F000F894FFCF8A
:0828F4000000000000000000DC
:00000001FF
