:100000000C942A000C943F000C943F000C943F0089
:100010000C943F000C943F000C943F000C943F0064
:100020000C943F000C943F000C943F000C943F0054
:100030000C943F000C943F000C943F000C943F0044
:100040000C943F000C943F000C943F000C943F0034
:100050000C943F0011241FBECFE5D8E0DEBFCDBF1A
:1000600011E0A0E6B0E0E2EFF3E302C005900D92EC
:10007000A837B107D9F70E940F180C94F7190C9400
:100080000000EF92FF920F931F937B018C0120E001
:1000900030E040E05FE40E94ED0388238CF0C8016B
:1000A000B70120E030E040E05FE40E94B9010E9427
:1000B0004D049B01AC01205030404040504806C0E8
:1000C000C801B7010E944D049B01AC01B901CA01EE
:1000D0001F910F91FF90EF900895A0E0B0E0E3E74B
:1000E000F0E00C94C019DC012B01FA019C919230D4
:1000F00008F439C1EB018881823008F433C19430AF
:1001000069F4843009F02FC111969C91119789816F
:10011000981709F428C1A0E6B0E025C1843009F49D
:1001200021C18230A9F4923009F01DC19A01AD01BC
:1001300088E0EA010990AE01E90109929E0181502F
:10014000C1F7E201898111969C918923818308C1BD
:10015000923009F407C112962D903C901397EB0151
:100160008A819B811496AD90BD90CD90DC901797BD
:10017000EC80FD800E811F819101281B390BB90194
:1001800037FF04C066277727621B730B6032710547
:100190000CF061C0121613066CF537014801062EEB
:1001A00004C096948794779467940A94D2F721E0D8
:1001B00030E040E050E004C0220F331F441F551FC1
:1001C0006A95D2F721503040404050402E213F21C7
:1001D00040235123211531054105510521F021E02E
:1001E00030E040E050E079018A01E628F72808294C
:1001F00019293CC0232BD1F1260E371E35014601AB
:10020000062E04C096948794779467940A94D2F744
:1002100021E030E040E050E004C0220F331F441FD3
:10022000551F6A95D2F721503040404050402A2156
:100230003B214C215D21211531054105510521F05E
:1002400021E030E040E050E059016A01A628B728DB
:10025000C828D9280BC0821593052CF01C01AA24AC
:10026000BB24650103C0EE24FF24870111969C91F5
:10027000D20111968C91981709F445C0992339F051
:10028000A80197012A193B094C095D0906C0A6017E
:1002900095012E193F09400B510B57FD08C01182E3
:1002A0003382228224833583468357831DC081E0B5
:1002B00081833382228288279927DC01821B930B5A
:1002C000A40BB50B84839583A683B7830DC0220F3F
:1002D000331F441F551F24833583468357838281F0
:1002E000938101979383828324813581468157814D
:1002F000DA01C9010197A109B1098F5F9F4FAF4F83
:10030000BF4328F30BC0918333822282EA0CFB1C8B
:100310000C1D1D1DE482F5820683178383E0808314
:10032000248135814681578157FF1AC0C901AA2708
:1003300097FDA095BA2F81709070A070B0705695FF
:10034000479537952795822B932BA42BB52B848328
:100350009583A683B7838281938101969383828359
:10036000DF0101C0D201CD01CDB7DEB7E2E10C94CF
:10037000DC19A0E2B0E0EFEBF1E00C94CC1969835A
:100380007A838B839C832D833E834F835887E9E058
:10039000EE2EF12CEC0EFD1ECE010196B7010E944F
:1003A0003E068E010F5E1F4FCE010596B8010E94DA
:1003B0003E068A8991E089278A8BC701B801AE0180
:1003C000475E5F4F0E946D000E946905A096E6E0BF
:1003D0000C94E819A0E2B0E0E0EFF1E00C94CC1945
:1003E00069837A838B839C832D833E834F835887D5
:1003F000F9E0EF2EF12CEC0EFD1ECE010196B701B7
:100400000E943E068E010F5E1F4FCE010596B80179
:100410000E943E06C701B801AE01475E5F4F0E94D1
:100420006D000E946905A096E6E00C94E819A0E230
:10043000B0E0EDE1F2E00C94C01969837A838B831C
:100440009C832D833E834F835887CE010196BE0146
:10045000675F7F4F0E943E06CE010596BE016F5E2C
:100460007F4F0E943E069985923088F089898230BC
:10047000C8F0943019F4823051F404C0843029F467
:10048000923081F480E690E0C6C0923049F420E0DA
:100490009A858A89981321E02A87CE010996BBC0E4
:1004A000823049F420E09A858A89981321E02A8BCA
:1004B000CE014196B0C02D843E844F8458886D880B
:1004C0007E888F88988CEE24FF248701AA24BB2481
:1004D000650140E050E060E070E0E0E0F0E0C10184
:1004E00081709070892BE9F0E60CF71C081D191D2E
:1004F0009A01AB012A0D3B1D4C1D5D1D80E090E073
:10050000A0E0B0E0E614F7040805190520F481E046
:1005100090E0A0E0B0E0BA01A901480F591F6A1F9E
:100520007B1FAA0CBB1CCC1CDD1C97FE08C081E005
:1005300090E0A0E0B0E0A82AB92ACA2ADB2A3196C6
:10054000E032F10549F0660C771C881C991C569422
:10055000479437942794C3CFFA85EA892B893C893D
:100560008B859C85280F391F2E5F3F4F17C0CA010E
:1005700081709070892B61F016950795F794E79438
:1005800080E090E0A0E0B0E8E82AF92A0A2B1B2BD3
:1005900076956795579547952F5F3F4F77FDE7CF46
:1005A0000CC0440F551F661F771F17FD4160EE0CEE
:1005B000FF1C001F111F21503040403090E05907B0
:1005C00090E0690790E4790760F32B8F3C8FDB01A3
:1005D000CA018F779070A070B07080349105A1052A
:1005E000B10561F447FD0AC0E114F10401051105EC
:1005F00029F0405C5F4F6F4F7F4F40781A8EFE1797
:1006000011F081E08A8F4D8F5E8F6F8F78A383E02A
:10061000898FCE0149960E946905A096E2E10C946B
:10062000DC19A8E1B0E0E7E1F3E00C94C8196983B4
:100630007A838B839C832D833E834F835887B9E0D5
:10064000EB2EF12CEC0EFD1ECE010196B7010E949F
:100650003E068E010F5E1F4FCE010596B8010E9427
:100660003E062985223008F47EC03989323010F4E4
:10067000B8017CC08A859A8989278A87243011F03D
:10068000223031F4231709F06EC060E670E06EC0CE
:10069000343039F41D861E861F86188A1C861B86F8
:1006A00004C0323021F484E08987B7015FC02B8514
:1006B0003C858B899C89281B390B3C872B87ED84D3
:1006C000FE840F851889AD88BE88CF88D88CEA143F
:1006D000FB040C051D0540F4EE0CFF1C001F111F50
:1006E000215030403C872B8720E030E040E050E054
:1006F00080E090E0A0E0B0E460E070E0EA14FB0489
:100700000C051D0540F0282B392B4A2B5B2BEA18D2
:10071000FB080C091D09B695A79597958795EE0CD2
:10072000FF1C001F111F6F5F7F4F6F31710531F785
:10073000DA01C9018F779070A070B0708034910594
:10074000A105B10561F427FD0AC0E114F10401051A
:10075000110529F0205C3F4F4F4F5F4F20782D87C8
:100760003E874F87588BBE01675F7F4FCB010E944A
:1007700069056896EAE00C94E419A8E1B0E0E3ECBE
:10078000F3E00C94CC1969837A838B839C832D834B
:100790003E834F83588789E0E82EF12CEC0EFD1E36
:1007A000CE010196B7010E943E068E010F5E1F4FDB
:1007B000CE010596B8010E943E068985823040F040
:1007C0008989823028F0C701B8010E94B60601C0AD
:1007D0008FEF6896E6E00C94E819A8E1B0E0E3EF4B
:1007E000F3E00C94CC1969837A838B839C832D83EB
:1007F0003E834F83588789E0E82EF12CEC0EFD1ED6
:10080000CE010196B7010E943E068E010F5E1F4F7A
:10081000CE010596B8010E943E068985823040F0DF
:100820008989823028F0C701B8010E94B60601C04C
:100830008FEF6896E6E00C94E819A8E1B0E0E3E2F7
:10084000F4E00C94CC1969837A838B839C832D8389
:100850003E834F83588789E0E82EF12CEC0EFD1E75
:10086000CE010196B7010E943E068E010F5E1F4F1A
:10087000CE010596B8010E943E068985823040F07F
:100880008989823028F0C701B8010E94B60601C0EC
:1008900081E06896E6E00C94E819ACE0B0E0E3E5AE
:1008A000F4E00C94D01969837A838B839C83CE0106
:1008B0000196BE016B5F7F4F0E943E068D818230A4
:1008C00061F1823050F1843021F48E81882351F11E
:1008D0002EC02F81388537FD20C06E812F31310524
:1008E0001CF06623F9F023C08EE190E0821B930B8D
:1008F00029853A854B855C8504C056954795379583
:1009000027958A95D2F76623B1F05095409530959A
:1009100021953F4F4F4F5F4F0EC020E030E040E049
:1009200050E009C02FEF3FEF4FEF5FE704C020E03A
:1009300030E040E050E8B901CA012C96E2E00C94A6
:10094000EC19A8E0B0E0E7EAF4E00C94C8197B01E8
:100950008C01611571058105910519F482E0898387
:1009600060C083E089838EE1C82ED12CDC82CB82EB
:10097000ED82FE820F831887C801B7010E941A0515
:10098000FC013197F7FF3BC0222733272E1B3F0B7B
:1009900057016801022E04C0D694C794B794A79457
:1009A0000A94D2F740E050E060E070E081E090E02F
:1009B000A0E0B0E004C0880F991FAA1FBB1F2A95B2
:1009C000D2F70197A109B1098E219F21A023B1235C
:1009D0000097A105B10521F041E050E060E070E032
:1009E0004A295B296C297D294D835E836F83788733
:1009F0008EE190E08E1B9F0B9C838B8312C03097FF
:100A000081F00E2E04C0EE0CFF1C001F111F0A9473
:100A1000D2F7ED82FE820F831887CE1ADF0ADC82BE
:100A2000CB821A82CE0101960E9469052896EAE0DF
:100A30000C94E419EF92FF920F931F937B018C01AA
:100A400080E0E81680E0F80681E0080780E01807FB
:100A500088F48FEFE816F1040105110531F028F054
:100A600088E090E0A0E0B0E017C080E090E0A0E077
:100A7000B0E012C080E0E81680E0F80680E00807E9
:100A800081E0180728F088E190E0A0E0B0E004C021
:100A900080E190E0A0E0B0E020E230E040E050E013
:100AA000281B390B4A0B5B0B04C016950795F7946E
:100AB000E7948A95D2F7F701E859FF4F8081281B08
:100AC000310941095109C9011F910F91FF90EF9020
:100AD0000895DF92EF92FF920F931F93FC01E48041
:100AE000F58006811781D1808081823048F480E0D2
:100AF00090E0A0E1B0E0E82AF92A0A2B1B2BA5C060
:100B0000843009F49FC0823021F4EE24FF24870151
:100B100005C0E114F1040105110519F4E0E0F0E06D
:100B200096C0628173819FEF623879070CF05BC0D9
:100B300022E83FEF261B370B2A3131052CF020E04D
:100B400030E040E050E02AC0B801A701022E04C006
:100B500076956795579547950A94D2F781E090E08E
:100B6000A0E0B0E004C0880F991FAA1FBB1F2A9500
:100B7000D2F70197A109B1098E219F21A023B123AA
:100B80000097A105B10521F081E090E0A0E0B0E080
:100B90009A01AB01282B392B4A2B5B2BDA01C901B7
:100BA0008F779070A070B07080349105A105B10569
:100BB00039F427FF09C0205C3F4F4F4F5F4F04C0FF
:100BC000215C3F4F4F4F5F4FE0E0F0E02030A0E06E
:100BD0003A07A0E04A07A0E45A0710F0E1E0F0E08D
:100BE00079018A0127C06038710564F5FB01E1587D
:100BF000FF4FD801C7018F779070A070B07080341C
:100C00009105A105B10539F4E7FE0DC080E490E03F
:100C1000A0E0B0E004C08FE390E0A0E0B0E0E80E18
:100C2000F91E0A1F1B1F17FF05C016950795F7949D
:100C3000E794319687E016950795F794E7948A959F
:100C4000D1F705C0EE24FF248701EFEFF0E06E2F0F
:100C5000679566276795902F9F77D794DD24D79463
:100C60008E2F8695492F462B582F5D29B701CA0133
:100C70001F910F91FF90EF90DF900895FC01DB0131
:100C8000408151812281622F6F7770E0221F2227DD
:100C9000221F9381892F880F822B282F30E0991FE4
:100CA0009927991F11969C93119721153105A9F544
:100CB000411551056105710511F482E037C082E8E4
:100CC0009FEF13969C938E9312979A01AB0167E066
:100CD000220F331F441F551F6A95D1F783E08C9371
:100CE0000DC0220F331F441F551F12968D919C91EA
:100CF0001397019713969C938E931297203080E060
:100D0000380780E0480780E4580758F314962D937D
:100D10003D934D935C93179708952F3F310579F4D8
:100D2000411551056105710519F484E08C9308950E
:100D300064FF03C081E08C9312C01C9210C02F5737
:100D4000304013963C932E93129783E08C9387E068
:100D5000440F551F661F771F8A95D1F7706414964C
:100D60004D935D936D937C93179708951F93DC01CA
:100D7000FB019C91923008F447C08081823008F4D6
:100D800043C0943051F411961C91843099F58181BF
:100D9000682F70E0611B71093FC0843021F09230F0
:100DA00031F48230B9F18181882389F12DC0119607
:100DB0001C9111978230F1F081811817D9F41296A5
:100DC0002D913C911397828193818217930794F020
:100DD00028173907BCF014968D919D910D90BC9108
:100DE000A02D2481358146815781281739074A076C
:100DF0005B0718F4112341F00AC082179307A40778
:100E0000B50740F4112319F061E070E005C06FEF01
:100E10007FEF02C060E070E0CB011F910895DF9387
:100E2000CF93CDB7DEB72C970FB6F894DEBF0FBEC9
:100E3000CDBF69837A838B839C838981282F30E09F
:100E40003C872B878B859C8581309105C1F02B8554
:100E50003C852230310511F18B859C85009761F529
:100E6000A7E2B0E0E7E2F0E080818F778C93A7E221
:100E7000B0E0E7E2F0E080818F7B8C931DC0A7E2B9
:100E8000B0E0E7E2F0E080818F778C93A7E2B0E0FA
:100E9000E7E2F0E0808180648C930EC0A7E2B0E0CE
:100EA000E7E2F0E0808180688C93A7E2B0E0E7E2BF
:100EB000F0E0808180648C938A81282F30E03A872B
:100EC000298789859A85009769F029853A85213097
:100ED000310579F4A7E2B0E0E7E2F0E080818062DA
:100EE0008C9307C0A7E2B0E0E7E2F0E080818F7D5D
:100EF0008C938B81282F30E038872F838F819885C2
:100F00008E30910509F4ADC22F8138852F3031051F
:100F10000CF054C08F8198858630910509F481C109
:100F20002F8138852730310524F58F8198858230CF
:100F3000910509F4E6C02F8138852330310564F42A
:100F40008F819885009709F494C02F8138852130CE
:100F5000310509F4B2C0C4C48F81988584309105ED
:100F600009F417C12F813885253031050CF035C1C2
:100F7000ECC08F8198858A30910509F4E2C12F81F8
:100F800038852B3031056CF48F8198858830910538
:100F900009F48FC12F813885293031050CF0ADC19E
:100FA00064C18F8198858C30910509F412C22F811C
:100FB00038852D3031050CF030C2E7C18F8198851E
:100FC0008631910509F46DC32F81388527313105AC
:100FD0002CF58F8198858231910509F4D2C22F8139
:100FE0003885233131056CF48F81988580319105E6
:100FF00009F47FC22F813885213131050CF09DC263
:1010000054C28F8198858431910509F402C32F81E0
:101010003885253131050CF020C3D7C28F819885E2
:101020008A31910509F4CDC32F8138852B313105E3
:101030006CF48F8198858831910509F47AC32F81EA
:101040003885293131050CF098C34FC38F819885BD
:101050008C31910509F4FDC32F8138852C31310580
:101060000CF4D3C38F8198858D31910509F415C493
:1010700037C4A7E2B0E0E7E2F0E080818F7E8C9396
:10108000A7E2B0E0E7E2F0E08081877F8C93A7E2FF
:10109000B0E0E7E2F0E080818B7F8C93A7E2B0E0E4
:1010A000E7E2F0E080818D7F8C93A7E2B0E0E7E299
:1010B000F0E080818E7F8C9313C4A7E2B0E0E7E27A
:1010C000F0E080818F7E8C93A7E2B0E0E7E2F0E071
:1010D0008081877F8C93A7E2B0E0E7E2F0E0808137
:1010E0008B7F8C93A7E2B0E0E7E2F0E080818D7F18
:1010F0008C93A7E2B0E0E7E2F0E0808181608C931E
:10110000EFC3A7E2B0E0E7E2F0E080818F7E8C934E
:10111000A7E2B0E0E7E2F0E08081877F8C93A7E26E
:10112000B0E0E7E2F0E080818B7F8C93A7E2B0E053
:10113000E7E2F0E0808182608C93A7E2B0E0E7E232
:10114000F0E080818E7F8C93CBC3A7E2B0E0E7E232
:10115000F0E080818F7E8C93A7E2B0E0E7E2F0E0E0
:101160008081877F8C93A7E2B0E0E7E2F0E08081A6
:101170008B7F8C93A7E2B0E0E7E2F0E080818260B1
:101180008C93A7E2B0E0E7E2F0E0808181608C938D
:10119000A7C3A7E2B0E0E7E2F0E080818F7E8C9306
:1011A000A7E2B0E0E7E2F0E08081877F8C93A7E2DE
:1011B000B0E0E7E2F0E0808184608C93A7E2B0E0E9
:1011C000E7E2F0E080818D7F8C93A7E2B0E0E7E278
:1011D000F0E080818E7F8C9383C3A7E2B0E0E7E2EA
:1011E000F0E080818F7E8C93A7E2B0E0E7E2F0E050
:1011F0008081877F8C93A7E2B0E0E7E2F0E0808116
:1012000084608C93A7E2B0E0E7E2F0E080818D7F1C
:101210008C93A7E2B0E0E7E2F0E0808181608C93FC
:101220005FC3A7E2B0E0E7E2F0E080818F7E8C93BD
:10123000A7E2B0E0E7E2F0E08081877F8C93A7E24D
:10124000B0E0E7E2F0E0808184608C93A7E2B0E058
:10125000E7E2F0E0808182608C93A7E2B0E0E7E211
:10126000F0E080818E7F8C933BC3A7E2B0E0E7E2A1
:10127000F0E080818F7E8C93A7E2B0E0E7E2F0E0BF
:101280008081877F8C93A7E2B0E0E7E2F0E0808185
:1012900084608C93A7E2B0E0E7E2F0E080818260B6
:1012A0008C93A7E2B0E0E7E2F0E0808181608C936C
:1012B00017C3A7E2B0E0E7E2F0E080818F7E8C9375
:1012C000A7E2B0E0E7E2F0E0808188608C93A7E2DB
:1012D000B0E0E7E2F0E080818B7F8C93A7E2B0E0A2
:1012E000E7E2F0E080818D7F8C93A7E2B0E0E7E257
:1012F000F0E080818E7F8C93F3C2A7E2B0E0E7E25A
:10130000F0E080818F7E8C93A7E2B0E0E7E2F0E02E
:10131000808188608C93A7E2B0E0E7E2F0E0808112
:101320008B7F8C93A7E2B0E0E7E2F0E080818D7FD5
:101330008C93A7E2B0E0E7E2F0E0808181608C93DB
:10134000CFC2A7E2B0E0E7E2F0E080818F7E8C932D
:10135000A7E2B0E0E7E2F0E0808188608C93A7E24A
:10136000B0E0E7E2F0E080818B7F8C93A7E2B0E011
:10137000E7E2F0E0808182608C93A7E2B0E0E7E2F0
:10138000F0E080818E7F8C93ABC2A7E2B0E0E7E211
:10139000F0E080818F7E8C93A7E2B0E0E7E2F0E09E
:1013A000808188608C93A7E2B0E0E7E2F0E0808182
:1013B0008B7F8C93A7E2B0E0E7E2F0E0808182606F
:1013C0008C93A7E2B0E0E7E2F0E0808181608C934B
:1013D00087C2A7E2B0E0E7E2F0E080818F7E8C93E5
:1013E000A7E2B0E0E7E2F0E0808188608C93A7E2BA
:1013F000B0E0E7E2F0E0808184608C93A7E2B0E0A7
:10140000E7E2F0E080818D7F8C93A7E2B0E0E7E235
:10141000F0E080818E7F8C9363C2A7E2B0E0E7E2C8
:10142000F0E080818F7E8C93A7E2B0E0E7E2F0E00D
:10143000808188608C93A7E2B0E0E7E2F0E08081F1
:1014400084608C93A7E2B0E0E7E2F0E080818D7FDA
:101450008C93A7E2B0E0E7E2F0E0808181608C93BA
:101460003FC2A7E2B0E0E7E2F0E080818F7E8C939C
:10147000A7E2B0E0E7E2F0E0808188608C93A7E229
:10148000B0E0E7E2F0E0808184608C93A7E2B0E016
:10149000E7E2F0E0808182608C93A7E2B0E0E7E2CF
:1014A000F0E080818E7F8C931BC2A7E2B0E0E7E280
:1014B000F0E080818F7E8C93A7E2B0E0E7E2F0E07D
:1014C000808188608C93A7E2B0E0E7E2F0E0808161
:1014D00084608C93A7E2B0E0E7E2F0E08081826074
:1014E0008C93A7E2B0E0E7E2F0E0808181608C932A
:1014F000F7C1A7E2B0E0E7E2F0E0808180618C9381
:10150000A7E2B0E0E7E2F0E08081877F8C93A7E27A
:10151000B0E0E7E2F0E080818B7F8C93A7E2B0E05F
:10152000E7E2F0E080818D7F8C93A7E2B0E0E7E214
:10153000F0E080818E7F8C93D3C1A7E2B0E0E7E238
:10154000F0E0808180618C93A7E2B0E0E7E2F0E018
:101550008081877F8C93A7E2B0E0E7E2F0E08081B2
:101560008B7F8C93A7E2B0E0E7E2F0E080818D7F93
:101570008C93A7E2B0E0E7E2F0E0808181608C9399
:10158000AFC1A7E2B0E0E7E2F0E0808180618C9338
:10159000A7E2B0E0E7E2F0E08081877F8C93A7E2EA
:1015A000B0E0E7E2F0E080818B7F8C93A7E2B0E0CF
:1015B000E7E2F0E0808182608C93A7E2B0E0E7E2AE
:1015C000F0E080818E7F8C938BC1A7E2B0E0E7E2F0
:1015D000F0E0808180618C93A7E2B0E0E7E2F0E088
:1015E0008081877F8C93A7E2B0E0E7E2F0E0808122
:1015F0008B7F8C93A7E2B0E0E7E2F0E0808182602D
:101600008C93A7E2B0E0E7E2F0E0808181608C9308
:1016100067C1A7E2B0E0E7E2F0E0808180618C93EF
:10162000A7E2B0E0E7E2F0E08081877F8C93A7E259
:10163000B0E0E7E2F0E0808184608C93A7E2B0E064
:10164000E7E2F0E080818D7F8C93A7E2B0E0E7E2F3
:10165000F0E080818E7F8C9343C1A7E2B0E0E7E2A7
:10166000F0E0808180618C93A7E2B0E0E7E2F0E0F7
:101670008081877F8C93A7E2B0E0E7E2F0E0808191
:1016800084608C93A7E2B0E0E7E2F0E080818D7F98
:101690008C93A7E2B0E0E7E2F0E0808181608C9378
:1016A0001FC1A7E2B0E0E7E2F0E0808180618C93A7
:1016B000A7E2B0E0E7E2F0E08081877F8C93A7E2C9
:1016C000B0E0E7E2F0E0808184608C93A7E2B0E0D4
:1016D000E7E2F0E0808182608C93A7E2B0E0E7E28D
:1016E000F0E080818E7F8C93FBC0A7E2B0E0E7E260
:1016F000F0E0808180618C93A7E2B0E0E7E2F0E067
:101700008081877F8C93A7E2B0E0E7E2F0E0808100
:1017100084608C93A7E2B0E0E7E2F0E08081826031
:101720008C93A7E2B0E0E7E2F0E0808181608C93E7
:10173000D7C0A7E2B0E0E7E2F0E0808180618C935F
:10174000A7E2B0E0E7E2F0E0808188608C93A7E256
:10175000B0E0E7E2F0E080818B7F8C93A7E2B0E01D
:10176000E7E2F0E080818D7F8C93A7E2B0E0E7E2D2
:10177000F0E080818E7F8C93B3C0A7E2B0E0E7E217
:10178000F0E0808180618C93A7E2B0E0E7E2F0E0D6
:10179000808188608C93A7E2B0E0E7E2F0E080818E
:1017A0008B7F8C93A7E2B0E0E7E2F0E080818D7F51
:1017B0008C93A7E2B0E0E7E2F0E0808181608C9357
:1017C0008FC0A7E2B0E0E7E2F0E0808180618C9317
:1017D000A7E2B0E0E7E2F0E0808188608C93A7E2C6
:1017E000B0E0E7E2F0E080818B7F8C93A7E2B0E08D
:1017F000E7E2F0E0808182608C93A7E2B0E0E7E26C
:10180000F0E080818E7F8C936BC0A7E2B0E0E7E2CE
:10181000F0E0808180618C93A7E2B0E0E7E2F0E045
:10182000808188608C93A7E2B0E0E7E2F0E08081FD
:101830008B7F8C93A7E2B0E0E7E2F0E080818260EA
:101840008C93A7E2B0E0E7E2F0E0808181608C93C6
:1018500047C0A7E2B0E0E7E2F0E0808180618C93CE
:10186000A7E2B0E0E7E2F0E0808188608C93A7E235
:10187000B0E0E7E2F0E0808184608C93A7E2B0E022
:10188000E7E2F0E080818D7F8C93A7E2B0E0E7E2B1
:10189000F0E080818E7F8C9323C0A7E2B0E0E7E286
:1018A000F0E0808180618C93A7E2B0E0E7E2F0E0B5
:1018B000808188608C93A7E2B0E0E7E2F0E080816D
:1018C00084608C93A7E2B0E0E7E2F0E080818D7F56
:1018D0008C93A7E2B0E0E7E2F0E0808181608C9336
:1018E0008C81282F30E03E832D838D819E81833033
:1018F000910509F46AC02D813E812430310584F4BC
:101900008D819E8181309105A1F12D813E81223012
:1019100031050CF044C08D819E810097A1F0ACC0D0
:101920002D813E812530310509F47BC08D819E815A
:10193000853091050CF45FC02D813E812630310544
:1019400009F485C099C0A6E2B0E0E6E2F0E080814B
:101950008B7F8C93A6E2B0E0E6E2F0E080818D7FA1
:101960008C93A6E2B0E0E6E2F0E080818E7F8C937B
:1019700083C0A6E2B0E0E6E2F0E080818B7F8C934A
:10198000A6E2B0E0E6E2F0E0808182608C93A6E21D
:10199000B0E0E6E2F0E080818E7F8C936DC0A6E23D
:1019A000B0E0E6E2F0E080818B7F8C93A6E2B0E0CD
:1019B000E6E2F0E0808182608C93A6E2B0E0E6E2AD
:1019C000F0E0808181608C9357C0A6E2B0E0E6E24F
:1019D000F0E0808184608C93A6E2B0E0E6E2F0E083
:1019E00080818D7F8C93A6E2B0E0E6E2F0E080811A
:1019F0008E7F8C9341C0A6E2B0E0E6E2F0E0808109
:101A000084608C93A6E2B0E0E6E2F0E080818D7F16
:101A10008C93A6E2B0E0E6E2F0E0808181608C93F6
:101A20002BC0A6E2B0E0E6E2F0E0808184608C9317
:101A3000A6E2B0E0E6E2F0E0808182608C93A6E26C
:101A4000B0E0E6E2F0E080818E7F8C9315C0A6E2E4
:101A5000B0E0E6E2F0E0808184608C93A6E2B0E042
:101A6000E6E2F0E0808182608C93A6E2B0E0E6E2FC
:101A7000F0E0808181608C93A6E2B0E0E6E2F0E0E5
:101A8000808180688C932C960FB6F894DEBF0FBED1
:101A9000CDBFCF91DF910895DF93CF9300D0CDB725
:101AA000DEB7A6E2B0E0E6E2F0E0808180648C93ED
:101AB000E6E2F0E0808182958F70882F90E081705F
:101AC00090700097A9F31A821982E4E2F0E0808115
:101AD000882F90E09A838983E5E2F0E08081882F67
:101AE00090E0982F88279C0189819A81822B932BE3
:101AF0009A838983A6E2B0E0E6E2F0E0808180612B
:101B00008C9389819A810F900F90CF91DF910895E6
:101B1000DF93CF9300D00F92CDB7DEB78A836B836C
:101B20008A8186958695869589838981882309F09F
:101B300066C08B818823C1F4AAE3B0E0EAE3F0E059
:101B40008081482F8A81882F90E09C012770307017
:101B500081E090E0022E02C0880F991F0A94E2F7FC
:101B6000809584238C9387C18B818130B9F4AAE35B
:101B7000B0E0EAE3F0E08081482F8A81882F90E08E
:101B80009C012770307081E090E0022E02C0880F27
:101B9000991F0A94E2F7842B8C936DC18B8182305C
:101BA00009F069C1AAE3B0E0EAE3F0E08081482FE0
:101BB0008A81882F90E09C012770307081E090E04E
:101BC00002C0880F991F2A95E2F7809584238C9391
:101BD000ABE3B0E0EBE3F0E08081482F8A81882F0F
:101BE00090E09C012770307081E090E0022E02C0EE
:101BF000880F991F0A94E2F7842B8C933CC189814A
:101C0000813009F066C08B818823C1F4A7E3B0E07E
:101C1000E7E3F0E08081482F8A81882F90E09C01E3
:101C20002770307081E090E0022E02C0880F991F6B
:101C30000A94E2F7809584238C931DC18B818130B7
:101C4000B9F4A7E3B0E0E7E3F0E08081482F8A81B0
:101C5000882F90E09C012770307081E090E0022E88
:101C600002C0880F991F0A94E2F7842B8C9303C15A
:101C70008B81823009F0FFC0A7E3B0E0E7E3F0E03A
:101C80008081482F8A81882F90E09C0127703070D6
:101C900081E090E002C0880F991F2A95E2F78095B5
:101CA00084238C93A8E3B0E0E8E3F0E08081482F40
:101CB0008A81882F90E09C012770307081E090E04D
:101CC000022E02C0880F991F0A94E2F7842B8C938E
:101CD000D2C08981823009F066C08B818823C1F42B
:101CE000A4E3B0E0E4E3F0E08081482F8A81882F0C
:101CF00090E09C012770307081E090E0022E02C0DD
:101D0000880F991F0A94E2F7809584238C93B3C0BF
:101D10008B818130B9F4A4E3B0E0E4E3F0E08081AA
:101D2000482F8A81882F90E09C012770307081E0D5
:101D300090E0022E02C0880F991F0A94E2F7842BCC
:101D40008C9399C08B81823009F095C0A4E3B0E0F8
:101D5000E4E3F0E08081482F8A81882F90E09C01A5
:101D60002770307081E090E002C0880F991F2A959B
:101D7000E2F7809584238C93A5E3B0E0E5E3F0E0FF
:101D80008081482F8A81882F90E09C0127703070D5
:101D900081E090E0022E02C0880F991F0A94E2F7BA
:101DA000842B8C9368C08981833009F064C08B8157
:101DB0008823C1F4A1E3B0E0E1E3F0E08081482FA3
:101DC0008A81882F90E09C012770307081E090E03C
:101DD000022E02C0880F991F0A94E2F7809584238F
:101DE0008C9349C08B818130B9F4A1E3B0E0E1E389
:101DF000F0E08081482F8A81882F90E09C01277035
:101E0000307081E090E0022E02C0880F991F0A9482
:101E1000E2F7842B8C932FC08B81823061F5A1E394
:101E2000B0E0E1E3F0E08081482F8A81882F90E0E4
:101E30009C012770307081E090E002C0880F991FEC
:101E40002A95E2F7809584238C93A2E3B0E0E2E345
:101E5000F0E08081482F8A81882F90E09C012770D4
:101E6000307081E090E0022E02C0880F991F0A9422
:101E7000E2F7842B8C930F900F900F90CF91DF910E
:101E80000895DF93CF9300D00F92CDB7DEB78A834A
:101E90006B838A8186958695869589838981882337
:101EA000B1F58B818823C1F4ABE3B0E0EBE3F0E064
:101EB0008081482F8A81882F90E09C0127703070A4
:101EC00081E090E0022E02C0880F991F0A94E2F789
:101ED000809584238C93C4C08B81813009F0C0C06D
:101EE000ABE3B0E0EBE3F0E08081482F8A81882FFC
:101EF00090E09C012770307081E090E0022E02C0DB
:101F0000880F991F0A94E2F7842B8C93A9C08981CA
:101F10008130B1F58B818823C1F4A8E3B0E0E8E318
:101F2000F0E08081482F8A81882F90E09C01277003
:101F3000307081E090E0022E02C0880F991F0A9451
:101F4000E2F7809584238C938BC08B81813009F0DC
:101F500087C0A8E3B0E0E8E3F0E08081482F8A8101
:101F6000882F90E09C012770307081E090E0022E75
:101F700002C0880F991F0A94E2F7842B8C9370C0DB
:101F800089818230B1F58B818823C1F4A5E3B0E06B
:101F9000E5E3F0E08081482F8A81882F90E09C0162
:101FA0002770307081E090E0022E02C0880F991FE8
:101FB0000A94E2F7809584238C9352C08B81813000
:101FC00009F04EC0A5E3B0E0E5E3F0E08081482FE2
:101FD0008A81882F90E09C012770307081E090E02A
:101FE000022E02C0880F991F0A94E2F7842B8C936B
:101FF00037C089818330A1F58B818823C1F4A2E3A6
:10200000B0E0E2E3F0E08081482F8A81882F90E001
:102010009C012770307081E090E0022E02C0880F92
:10202000991F0A94E2F7809584238C9319C08B81C1
:102030008130B1F4A2E3B0E0E2E3F0E08081482F28
:102040008A81882F90E09C012770307081E090E0B9
:10205000022E02C0880F991F0A94E2F7842B8C93FA
:102060000F900F900F90CF91DF910895DF93CF9352
:1020700000D000D0CDB7DEB78A838A818695869559
:102080008695898389818823A9F4E9E3F0E080813A
:10209000282F30E08A81882F90E087709070A90106
:1020A00002C0559547958A95E2F7CA01582F51709D
:1020B0005B8349C089818130A9F4E6E3F0E0808147
:1020C000282F30E08A81882F90E087709070A901D6
:1020D00002C0559547958A95E2F7CA01582F51706D
:1020E0005B8331C089818230A9F4E3E3F0E0808131
:1020F000282F30E08A81882F90E087709070A901A6
:1021000002C0559547958A95E2F7CA01582F51703C
:102110005B8319C089818330A9F4E0E3F0E080811A
:10212000282F30E08A81882F90E087709070A90175
:1021300002C0559547958A95E2F7CA01582F51700C
:102140005B8301C002C08B818C838C810F900F90C8
:102150000F900F90CF91DF910895DF93CF9300D030
:10216000CDB7DEB71A820BC08A8161E00E94880D6C
:102170008A8161E00E94410F8A818F5F8A838A8110
:10218000843090F384E0898307C0898162E00E94F3
:10219000880D89818F5F898389818830B0F30F90A2
:1021A0000F90CF91DF910895DF93CF93CDB7DEB736
:1021B00061970FB6F894DEBF0FBECDBF1F86198A98
:1021C000A7C0898960E00E94410F84E0888B95C098
:1021D00088890E943610882309F08CC080E090E046
:1021E000A8E4B2E48B879C87AD87BE876B857C852E
:1021F0008D859E8520E030E04AEF54E40E9417026E
:10220000DC01CB018F839887A987BA876F81788596
:1022100089859A8520E030E040E85FE30E941D0454
:1022200088232CF481E090E09E838D833FC06F81F2
:10223000788589859A8520E03FEF4FE757E40E9433
:10224000BD0318164CF56B857C858D859E8520E039
:1022500030E040E251E40E941702DC01CB01BC01F6
:10226000CD010E944100DC01CB019E838D830FC014
:1022700088EC90E09C838B838B819C810197F1F7A4
:102280009C838B838D819E8101979E838D838D811D
:102290009E81009769F714C06F81788589859A853A
:1022A0000E944100DC01CB019E838D838D819E8144
:1022B0009A83898389819A810197F1F79A83898327
:1022C00088890E9436108130A9F48989482F50E00E
:1022D0008889882F90E09C0124503040CA01880FE3
:1022E000991F880F991F820F931FFC01E859FE4F19
:1022F00080818F8788898F5F888B8889883008F4F0
:1023000067CF898961E00E94410F89898F5F898B3E
:102310008989843008F455CF8F8561960FB6F8947B
:10232000DEBF0FBECDBFCF91DF910895DF93CF9376
:10233000CDB7DEB72F970FB6F894DEBF0FBECDBF77
:102340008F8780E161E00E94880D80E160E00E945B
:10235000410F81E161E00E94880D81E160E00E940F
:10236000410F88E161E00E94880D8F85982F917060
:1023700088E1692F0E94410F89E161E00E94880D88
:102380008F858695982F917089E1692F0E94410F62
:102390008AE161E00E94880D8F8586958695982F49
:1023A00091708AE1692F0E94410F8BE161E00E94E8
:1023B000880D8F85869586958695982F91708BE1EF
:1023C000692F0E94410F8CE161E00E94880D8F858A
:1023D00082958F70982F91708CE1692F0E94410F28
:1023E0008DE161E00E94880D8F85829586958770CA
:1023F000982F91708DE1692F0E94410F8EE161E06D
:102400000E94880D8F858295869586958370982F7A
:1024100091708EE1692F0E94410F8FE161E00E946F
:10242000880D8F85982F991F9927991F8FE1692F04
:102430000E94410F82E161E00E94880D82E161E02B
:102440000E94410F80E090E0A0E0B0E48B879C8781
:10245000AD87BE876B857C858D859E8520E030E0CD
:102460004AEF54E40E941702DC01CB018F83988766
:10247000A987BA876F81788589859A8520E030E0C1
:1024800040E85FE30E941D0488232CF481E090E083
:102490009E838D833FC06F81788589859A8520E0F2
:1024A0003FEF4FE757E40E94BD0318164CF56B85CC
:1024B0007C858D859E8520E030E040E251E40E94DD
:1024C0001702DC01CB01BC01CD010E944100DC01FF
:1024D000CB019E838D830FC088EC90E09C838B831F
:1024E0008B819C810197F1F79C838B838D819E81E9
:1024F00001979E838D838D819E81009769F714C01B
:102500006F81788589859A850E944100DC01CB0125
:102510009E838D838D819E819A83898389819A810F
:102520000197F1F79A83898382E160E00E94410F6D
:102530002F960FB6F894DEBF0FBECDBFCF91DF91BF
:102540000895DF93CF93CDB7DEB72F970FB6F894EA
:10255000DEBF0FBECDBF8F8780E161E00E94880D96
:1025600080E161E00E94410F81E161E00E94880DFD
:1025700081E160E00E94410F88E161E00E94880DE6
:102580008F85982F917088E1692F0E94410F89E112
:1025900061E00E94880D8F858695982F917089E162
:1025A000692F0E94410F8AE161E00E94880D8F85AA
:1025B00086958695982F91708AE1692F0E94410F28
:1025C0008BE161E00E94880D8F85869586958695C2
:1025D000982F91708BE1692F0E94410F8CE161E08F
:1025E0000E94880D8F8582958F70982F91708CE155
:1025F000692F0E94410F8DE161E00E94880D8F8557
:10260000829586958770982F91708DE1692F0E9431
:10261000410F8EE161E00E94880D8F85829586953D
:1026200086958370982F91708EE1692F0E94410FDB
:102630008FE161E00E94880D8F85982F991F99275F
:10264000991F8FE1692F0E94410F82E161E00E9492
:10265000880D82E161E00E94410F80E090E0A0E0FF
:10266000B0E48B879C87AD87BE876B857C858D8525
:102670009E8520E030E04AEF54E40E941702DC011E
:10268000CB018F839887A987BA876F8178858985E1
:102690009A8520E030E040E85FE30E941D04882333
:1026A0002CF481E090E09E838D833FC06F8178851C
:1026B00089859A8520E03FEF4FE757E40E94BD03EC
:1026C00018164CF56B857C858D859E8520E030E065
:1026D00040E251E40E941702DC01CB01BC01CD01B4
:1026E0000E944100DC01CB019E838D830FC088ECEA
:1026F00090E09C838B838B819C810197F1F79C8375
:102700008B838D819E8101979E838D838D819E8198
:10271000009769F714C06F81788589859A850E9432
:102720004100DC01CB019E838D838D819E819A8344
:10273000898389819A810197F1F79A83898382E15C
:1027400060E00E94410F2F960FB6F894DEBF0FBED7
:10275000CDBFCF91DF910895DF93CF93CDB7DEB793
:10276000E8970FB6F894DEBF0FBECDBF80E090E0D3
:10277000A8E4B2E48DAB9EABAFABB8AF6DA97EA9B8
:102780008FA998AD20E030E04AEF54E40E94170290
:10279000DC01CB0189AB9AABABABBCAB69A97AA925
:1027A0008BA99CA920E030E040E85FE30E941D0473
:1027B00088232CF481E090E098AB8FA73FC069A9F3
:1027C0007AA98BA99CA920E03FEF4FE757E40E942C
:1027D000BD0318164CF56DA97EA98FA998AD20E010
:1027E00030E040E251E40E941702DC01CB01BC0161
:1027F000CD010E944100DC01CB0198AB8FA70FC037
:1028000088EC90E09EA78DA78DA59EA50197F1F776
:102810009EA78DA78FA598A9019798AB8FA78FA585
:1028200098A9009769F714C069A97AA98BA99CA9EE
:102830000E944100DC01CB0198AB8FA78FA598A91E
:102840009CA78BA78BA59CA50197F1F79CA78BA7AD
:1028500088E30E94961180E090E0A0E0B0E48FA3AE
:1028600098A7A9A7BAA76FA178A589A59AA520E0DE
:1028700030E04AEF54E40E941702DC01CB018BA345
:102880009CA3ADA3BEA36BA17CA18DA19EA120E0C2
:1028900030E040E85FE30E941D0488232CF481E0CF
:1028A00090E09AA389A33FC06BA17CA18DA19EA1BA
:1028B00020E03FEF4FE757E40E94BD0318164CF5A8
:1028C0006FA178A589A59AA520E030E040E251E407
:1028D0000E941702DC01CB01BC01CD010E94410026
:1028E000DC01CB019AA389A30FC088EC90E098A3E8
:1028F0008F8F8F8D98A10197F1F798A38F8F89A162
:102900009AA101979AA389A389A19AA1009769F72F
:1029100014C06BA17CA18DA19EA10E944100DC018D
:10292000CB019AA389A389A19AA19E8F8D8F8D8DAA
:102930009E8D0197F1F79E8F8D8F8CE00E949611EE
:1029400080E090E0A0E0B0E4898F9A8FAB8FBC8FDD
:10295000698D7A8D8B8D9C8D20E030E04AEF54E4B8
:102960000E941702DC01CB018D8B9E8BAF8BB88F41
:102970006D897E898F89988D20E030E040E85FE3A3
:102980000E941D0488232CF481E090E09C8B8B8BAB
:102990003FC06D897E898F89988D20E03FEF4FE79A
:1029A00057E40E94BD0318164CF5698D7A8D8B8D06
:1029B0009C8D20E030E040E251E40E941702DC01EF
:1029C000CB01BC01CD010E944100DC01CB019C8BFD
:1029D0008B8B0FC088EC90E09A8B898B89899A89C0
:1029E0000197F1F79A8B898B8B899C8901979C8B36
:1029F0008B8B8B899C89009769F714C06D897E89C0
:102A00008F89988D0E944100DC01CB019C8B8B8BC0
:102A10008B899C89988B8F878F8598890197F1F78F
:102A2000988B8F8781E00E94961180E090E0A0E073
:102A3000B0E48B879C87AD87BE876B857C858D8551
:102A40009E8520E030E04AEF54E40E941702DC014A
:102A5000CB018F839887A987BA876F81788589850D
:102A60009A8520E030E040E85FE30E941D0488235F
:102A70002CF481E090E09E838D833FC06F81788548
:102A800089859A8520E03FEF4FE757E40E94BD0318
:102A900018164CF56B857C858D859E8520E030E091
:102AA00040E251E40E941702DC01CB01BC01CD01E0
:102AB0000E944100DC01CB019E838D830FC088EC16
:102AC00090E09C838B838B819C810197F1F79C83A1
:102AD0008B838D819E8101979E838D838D819E81C5
:102AE000009769F714C06F81788589859A850E945F
:102AF0004100DC01CB019E838D838D819E819A8371
:102B0000898389819A810197F1F79A838983E8966D
:102B10000FB6F894DEBF0FBECDBFCF91DF91089501
:102B2000DF93CF9300D000D0CDB7DEB79A838983EF
:102B300088E161E00E94880D89E161E00E94880DD2
:102B40008AE161E00E94880D8BE161E00E94880DBE
:102B50008CE161E00E94880D8DE161E00E94880DAA
:102B60008EE161E00E94880D8FE161E00E94880D96
:102B700086E061E00E94880D86E061E00E94410FDE
:102B800089819A819C838B838B819C81853091057F
:102B900009F4F2C08B819C81863091051CF58B81F4
:102BA0009C818230910509F484C08B819C818330A3
:102BB00091055CF48B819C810097C9F18B819C818C
:102BC0008130910509F454C09CC18B819C81833074
:102BD000910509F48FC08B819C818430910509F4A3
:102BE000AAC08FC18B819C818830910509F427C1CF
:102BF0008B819C81893091056CF48B819C8186301E
:102C0000910509F4DAC08B819C818730910509F424
:102C1000F5C077C18B819C818930910509F430C161
:102C20008B819C818A30910509F44BC16AC188E18E
:102C300060E00E94410F89E160E00E94410F8AE15B
:102C400060E00E94410F8BE160E00E94410F8CE147
:102C500060E00E94410F8DE161E00E94410F8EE132
:102C600060E00E94410F8FE161E00E94410F49C185
:102C700088E161E00E94410F89E160E00E94410F1C
:102C80008AE160E00E94410F8BE161E00E94410F08
:102C90008CE161E00E94410F8DE161E00E94410FF3
:102CA0008EE161E00E94410F8FE161E00E94410FDF
:102CB00028C188E160E00E94410F89E160E00E9444
:102CC000410F8AE161E00E94410F8BE160E00E94C8
:102CD000410F8CE160E00E94410F8DE160E00E94B5
:102CE000410F8EE161E00E94410F8FE161E00E949F
:102CF000410F07C188E160E00E94410F89E160E077
:102D00000E94410F8AE160E00E94410F8BE160E088
:102D10000E94410F8CE161E00E94410F8DE160E073
:102D20000E94410F8EE161E00E94410F8FE161E05E
:102D30000E94410FE6C088E161E00E94410F89E1F5
:102D400060E00E94410F8AE160E00E94410F8BE148
:102D500061E00E94410F8CE161E00E94410F8DE132
:102D600060E00E94410F8EE160E00E94410F8FE120
:102D700061E00E94410FC5C088E160E00E94410F00
:102D800089E161E00E94410F8AE160E00E94410F09
:102D90008BE160E00E94410F8CE161E00E94410FF5
:102DA0008DE160E00E94410F8EE160E00E94410FE2
:102DB0008FE161E00E94410FA4C088E160E00E94C1
:102DC000410F89E161E00E94410F8AE160E00E94C9
:102DD000410F8BE160E00E94410F8CE160E00E94B6
:102DE000410F8DE160E00E94410F8EE160E00E94A2
:102DF000410F8FE161E00E94410F83C088E160E0F4
:102E00000E94410F89E160E00E94410F8AE160E089
:102E10000E94410F8BE161E00E94410F8CE161E073
:102E20000E94410F8DE161E00E94410F8EE161E05F
:102E30000E94410F8FE161E00E94410F62C088E172
:102E400060E00E94410F89E160E00E94410F8AE149
:102E500060E00E94410F8BE160E00E94410F8CE135
:102E600060E00E94410F8DE160E00E94410F8EE121
:102E700060E00E94410F8FE161E00E94410F41C07C
:102E800088E160E00E94410F89E160E00E94410F0B
:102E90008AE160E00E94410F8BE160E00E94410FF7
:102EA0008CE161E00E94410F8DE160E00E94410FE2
:102EB0008EE160E00E94410F8FE161E00E94410FCE
:102EC00020C088E161E00E94410F89E161E00E9439
:102ED000410F8AE161E00E94410F8BE161E00E94B5
:102EE000410F8CE161E00E94410F8DE161E00E94A1
:102EF000410F8EE161E00E94410F8FE160E00E948E
:102F0000410F0F900F900F900F90CF91DF91089588
:102F1000DF93CF93CDB7DEB780E161E00E94880DEB
:102F200081E161E00E94880D82E161E00E94880DEC
:102F300083E161E00E94880D80E160E00E94410F22
:102F400081E160E00E94410F82E160E00E94410F58
:102F500083E160E00E94410FCF91DF910895DF93FC
:102F6000CF9300D000D00F92CDB7DEB789837B839B
:102F70006A835D834C830F900F900F900F900F909A
:102F8000CF91DF910895DF93CF93CDB7DEB72A9726
:102F90000FB6F894DEBF0FBECDBF9C838B837E83BC
:102FA0006D8358874F831A82198223C089819A8141
:102FB0009C01220F331F8B819C81FC01E20FF31FC8
:102FC0004081518189819A819C01220F331F8D811B
:102FD0009E81FC01E20FF31F808191814817590700
:102FE00019F01A86198610C089819A8101969A83F0
:102FF000898329813A818F81988528173907B4F20E
:1030000081E090E09A87898789859A852A960FB60C
:10301000F894DEBF0FBECDBFCF91DF910895DF934F
:10302000CF93CDB7DEB7E2970FB6F894DEBF0FBEF1
:10303000CDBF80E061E00E94880D81E061E00E94E8
:10304000880D81E061E00E94410F88EE8AAB90E23A
:103050008AA9292F281B822F89AB80E061E00E947A
:10306000410F8AA9882F90E0A0E0B0E0BC01CD011B
:103070000E94A104DC01CB018DA79EA7AFA7B8AB2E
:103080006DA57EA58FA598A92BEA3AEA4AE250E4FD
:103090000E941702DC01CB0189A79AA7ABA7BCA7A6
:1030A00069A57AA58BA59CA520E030E040E85FE308
:1030B0000E941D0488231CF481E088A791C069A5A3
:1030C0007AA58BA59CA520E030E04FE753E40E9451
:1030D000BD0318160CF07BC06DA57EA58FA598A921
:1030E00020E030E04AE754E40E941103DC01CB0108
:1030F0008CA39DA3AEA3BFA36CA17DA18EA19FA114
:1031000020E030E04AEF54E40E941702DC01CB01DA
:1031100088A399A3AAA3BBA368A179A18AA19BA113
:1031200020E030E040E85FE30E941D0488232CF497
:1031300081E090E09F8F8E8F3FC068A179A18AA126
:103140009BA120E03FEF4FE757E40E94BD03181614
:103150004CF56CA17DA18EA19FA120E030E040E262
:1031600051E40E941702DC01CB01BC01CD010E9499
:103170004100DC01CB019F8F8E8F0FC088EC90E067
:103180009D8F8C8F8C8D9D8D0197F1F79D8F8C8FEE
:103190008E8D9F8D01979F8F8E8F8E8D9F8D009727
:1031A00069F724C068A179A18AA19BA10E9441006E
:1031B000DC01CB019F8F8E8F8E8D9F8D9B8F8A8F91
:1031C0008A8D9B8D0197F1F79B8F8A8F0FC069A520
:1031D0007AA58BA59CA50E944100DC01CB0188A7A4
:1031E00088A5898F898D8A95F1F7898F80E060E0C5
:1031F0000E94410F89A9882F90E0A0E0B0E0BC01B7
:10320000CD010E94A104DC01CB018D8B9E8BAF8B85
:10321000B88F6D897E898F89988D2BEA3AEA4AE2C8
:1032200050E40E941702DC01CB01898B9A8BAB8B97
:10323000BC8B69897A898B899C8920E030E040E8E1
:103240005FE30E941D0488231CF481E0888B91C0F9
:1032500069897A898B899C8920E030E04FE753E4C3
:103260000E94BD0318160CF07BC06D897E898F8982
:10327000988D20E030E04AE754E40E941103DC011D
:10328000CB018C879D87AE87BF876C857D858E85BA
:103290009F8520E030E04AEF54E40E941702DC01F1
:1032A000CB0188879987AA87BB87688579858A85B6
:1032B0009B8520E030E040E85FE30E941D04882306
:1032C0002CF481E090E09F838E833FC068857985F0
:1032D0008A859B8520E03FEF4FE757E40E94BD03BE
:1032E00018164CF56C857D858E859F8520E030E035
:1032F00040E251E40E941702DC01CB01BC01CD0188
:103300000E944100DC01CB019F838E830FC088ECBB
:1033100090E09D838C838C819D810197F1F79D8343
:103320008C838E819F8101979F838E838E819F8165
:10333000009769F792CE688579858A859B850E947A
:103340004100DC01CB019F838E838E819F819B8313
:103350008A838A819B810197F1F79B838A837DCE43
:1033600069897A898B899C890E944100DC01CB01A3
:10337000888B8889898389818A95F1F789836DCEC5
:103380002F923F924F925F926F927F928F929F9275
:10339000AF92BF92CF92DF92EF92FF920F931F9363
:1033A000CF93DF93CDB7DEB7CA1BDB0B0FB6F89414
:1033B000DEBF0FBECDBF09942A88398848885F8454
:1033C0006E847D848C849B84AA84B984C884DF80C5
:1033D000EE80FD800C811B81AA81B981CE0FD11DA9
:1033E0000FB6F894DEBF0FBECDBFED010895F8947F
:0233F000FFCF0D
:1033F20000000000000000000001020203030303BA
:103402000404040404040404050505050505050572
:103412000505050505050505060606060606060652
:10342200060606060606060606060606060606063A
:103432000606060606060606070707070707070722
:10344200070707070707070707070707070707070A
:1034520007070707070707070707070707070707FA
:1034620007070707070707070707070707070707EA
:1034720007070707070707070808080808080808D2
:1034820008080808080808080808080808080808BA
:1034920008080808080808080808080808080808AA
:1034A200080808080808080808080808080808089A
:1034B200080808080808080808080808080808088A
:1034C200080808080808080808080808080808087A
:1034D200080808080808080808080808080808086A
:1034E200080808080808080808080808080808085A
:1034F20008080808080808080105090D02060A0E4E
:0835020003070B0F04080C1075
:00000001FF
